:020000040800F2
:10400000D84900209D4100080752000811510008BE
:104010000552000809420008A155000800000000F0
:104020000000000000000000000000000541000842
:104030000B420008000000004941000881520008BE
:10404000B7410008B7410008B7410008B741000870
:10405000B7410008B74100080D420008B741000809
:10406000B7410008B7410008B7410008B741000850
:10407000B7410008B7410008B7410008B741000840
:10408000B7410008B7410008B7410008B741000830
:10409000B7410008B7410008B7410008B741000820
:1040A000B7410008B7410008B7410008B741000810
:1040B000B7410008B7410008F5520008B7410008B1
:1040C000B7410008B7410008B7410008B7410008F0
:1040D000B741000895550008B7410008B7410008EE
:1040E00013420008B7410008B7410008DFF810D0BC
:1040F00000F078F80048004715560008AFF300803C
:10410000D8490020224B19680868B0E8F00F80F306
:104110000988BFF36F8F4FF0000080F311884EF0D5
:104120000D0E70470000000006480068006880F32C
:10413000088862B661B6BFF34F8FBFF36F8F00DFA1
:1041400000BF00BF08ED00E0EFF30980BFF36F8F01
:104150000F4B1A6820E9F00F106008B54FF0F0001F
:1041600080F31188BFF34F8FBFF36F8F01F070FDA5
:104170004FF0000080F31188BDE808401968086816
:10418000B0E8F00F80F30988BFF36F8F704700BF6E
:1041900020000020EFF305807047000006488047AC
:1041A00006480047FEE7FEE7FEE7FEE7FEE7FEE71C
:1041B000FEE7FEE7FEE7FEE7F1520008ED400008EB
:1041C000D2B201E000F8012B491EFBD27047002259
:1041D000F6E710B513460A4604461946FFF7F0FF06
:1041E000204610BD064C074D06E0E06840F0010394
:1041F00094E8070098471034AC42F6D3FFF77AFFF3
:10420000B85F0008D85F0008FEE77047012000F0A3
:1042100077B84FF4005000F073B872B6FEE710B5EF
:1042200090F821100022022905D00421816380F832
:104230002020012010BD01680B6823F00E030B60E5
:1042400001680B6823F001030B6090F840300124F3
:1042500004FA03F1C36B596080F8214080F82020F4
:10426000104610BD10B590F821100024022903D08B
:104270000421816301243DE001680A6822F00E02F6
:104280000A6001680A6822F001020A601A4A01689D
:10429000914201D1012121E0174A1432914201D10A
:1042A00010211BE0144A2832914201D1891515E0F2
:1042B000114A3C32914201D189140FE00E4A50322A
:1042C000914202D14FF4803108E00B4A64329142AE
:1042D00002D14FF4801101E04FF08071064A083A94
:1042E0005160012180F82110002180F82010416BDD
:1042F00001B18847204610BD080002407047000009
:10430000044910B50A68024202D00860FFF7F6FFC0
:1043100010BD0000140401402DE9F84FDFF8A4910E
:104320000024A9F1040B23464FF00F0809F1040AF9
:10433000ABF1040EBEE00127A7403A40BA4272D169
:10434000DFF884C14D68A5EB0C0665452BD00DDC6C
:10435000032D34D005DC35B3012D19D0022D2FD11A
:104360001BE0112D16D0122D2AD119E0B6F5881FA9
:1043700019D006DCB6F5803F15D0B6F5801F1FD1E9
:1043800011E0B6F5001F0ED0B6F5041F18D10AE0F3
:10439000CB6815E0CB681B1D12E0CB6808330FE03B
:1043A000CB680C330CE08B682BB1012B4FF008036A
:1043B00003D0476104E0042302E0076100E000232A
:1043C000FF2A01D8064601E000F104064FEA840501
:1043D00001D9A5F12005376808FA05FC27EA0C0782
:1043E00003FA05F547EA050737604D68ED0060D52B
:1043F000364DAE6946F00106AE61AD6924F00306A4
:1044000005F001050095324D7719BE68A5072D0FFF
:1044100008FA05FC26EA0C06DFF8B8C0604503D1AF
:104420004FF0000C17E044E0DFF8ACC0604502D16B
:104430004FF0010C0FE0DFF8A4C0604502D14FF04F
:10444000020C08E0DFF898C0604502D14FF0030C81
:1044500001E04FF0040C0CFA05FC4CEA060CC7F81E
:1044600008C04D68D9F80060ED024D4601D51643ED
:1044700000E096432E604D68DAF80060AD025546C4
:1044800001D5164300E096432E604D68DBF80060CE
:10449000AD035D4601D5164300E096432E604D689E
:1044A000DEF80060ED03754601D5164300E0964343
:1044B0002E60641C0A6832FA04F57FF43CAFBDE854
:1044C000F88F0000080401400000111000100240A5
:1044D0000000014000080140000C014000100140B4
:1044E00000140140C26821EA02030A4043EA024183
:1044F000016170470AB1016170470904FBE70000E0
:104500000148806870470000100000200248816860
:10451000027811448160704710000020074810B5F0
:10452000016841F010010160032000F0A1F80F20A4
:1045300000F006F800F050F8002010BD0020024006
:1045400030B505461F4887B0C16941F00401C1611B
:10455000C06906A900F004000590684600F036F92D
:104560000398B0B100F052F940001749174AB0FB68
:10457000F1F11748491E0260416040F2E732002124
:10458000C0E903218160816100F014FB040003D0C5
:1045900015E000F03BF9E8E70D4800F039FB0400B6
:1045A0000DD11E2000F036F8102D07D2002229462A
:1045B0001E2000F03DF80748056000E0012407B028
:1045C000204630BD0010024040420F00000800406D
:1045D000C8000020140000200C4808B5816941F093
:1045E00001018161816901F001010091C16941F01E
:1045F0008051C161C069064900F080500090486850
:1046000020F0E06040F00070486008BD00100240FB
:1046100000000140002809DB00F01F020121914049
:104620004009800000F1E020C0F800117047000050
:10463000F0B40E4B1B68C3F30223C3F10704042C30
:1046400000D904241D1D072D01D2002300E0DB1E2C
:10465000012606FA04F56D1E0D409D409E40761E13
:10466000164045EA0601F0BC00F09BBF0CED00E0EF
:10467000064A00F0070110684FF6FF03184040EAB1
:104680000120034908431060704700000CED00E072
:104690000000FA052DE9F0470D46040067D0DFF869
:1046A0001881D8F8000000F00700A8420CD2D8F812
:1046B000001021F007012943C8F80010D8F80000C5
:1046C00000F00700A84252D120683C4E810712D565
:1046D000400703D5706840F4E06070602078000700
:1046E00003D5706840F4605070607068A16820F075
:1046F000F000084370602078C00727D06068012868
:1047000010D03168022810D0890700292FDA71688B
:1047100021F0030101437160FFF7F2FE074641F209
:1047200088390CE031688903EFE78901EDE7FFF78D
:10473000E7FEC11B494502D90320BDE8F087706838
:10474000616800F00C00B0EB810FF0D1D8F80010D8
:10475000404601F00701A9420BD9016821F0070189
:1047600029430160006800F00700A84201D0012041
:10477000E3E72078400705D57068E16820F4E06041
:10478000084370602078000706D57068216920F41E
:10479000605040EAC100706000F058F87168084A43
:1047A000C1F30311515CC84006490860064800681F
:1047B000FFF7C6FE0020C0E70020024000100240C4
:1047C0009E5F00081C000020140000200F220260E1
:1047D0000C4A536803F003034360536803F0F0038B
:1047E0008360536803F4E063C36052684FF4E0638E
:1047F00003EAD20202610448006800F00700086082
:1048000070470000001002400020024004480549A3
:1048100000684968044AC1F30221515CC8407047EE
:104820001C00002000100240AE5F0008044805494B
:1048300000684968044AC1F3C221515CC84070470E
:104840001C00002000100240AE5F00080E4B5968AB
:104850000E4801F00C02042A11D0082A0FD10C488E
:10486000C1F38342C903805C0AD55968084AC1F381
:104870004041921E515C054A5043B0FBF1F0704735
:1048800004494843704700000010024000127A00BB
:104890008E5F000800093D002DE9F84F04006FD03D
:1048A0002078BE4DC00747D06868C0F3810001285A
:1048B00007D06868C0F38100022809D16868C00386
:1048C00006D52868800337D560680028E7D033E034
:1048D0006068B0F5803F0BD010B1B0F5A02F11D0BB
:1048E000286820F480302860286820F4802002E0C6
:1048F000286840F480302860606888B1FFF700FEC7
:10490000064609E0286840F480202860F0E7FFF7B9
:10491000F7FD801B642873D828688003F7D50BE067
:10492000FFF7EEFD064604E0FFF7EAFD801B642872
:10493000F1D828688003F7D42078DFF864828007F4
:104940004FF0010A4FF0000939D5686810F00C0FDC
:1049500007D06868C0F38100022809D16868C003E5
:1049600006D42868800714D52069012808D110E0F2
:104970002069B0B1C8F800A0FFF7C2FD064605E007
:1049800007E1FFF7BDFD801B0228C4D82868800717
:10499000F7D52868616920F0F80040EAC100286076
:1049A0000DE0C8F80090FFF7ABFD064604E0FFF706
:1049B000A7FD801B022823D828688007F7D4207819
:1049C00000072CD57748A169D9B1C0F800A0FFF73E
:1049D00097FD064604E0FFF793FD801B02280FD8E1
:1049E000686A8007F7D570484FF4FA510068B0FB49
:1049F000F1F0009000BF0098411E0091FAD20EE045
:104A00007CE0C0F80090FFF77BFD064604E0FFF76E
:104A100077FD801B022871D8686A8007F7D4207858
:104A200040075BD5E8690027C00008D4E86940F07A
:104A30008050E861E869012700F0805000905B48F1
:104A40000168C90511D40168834641F48071016091
:104A5000FFF756FD064604E0FFF752FD801B642871
:104A60004CD8DBF80000C005F6D5E06801280AD074
:104A700008B1052813D0286A20F001002862286AAE
:104A800020F0040002E0286A40F001002862E0689B
:104A900041F2883B88B1FFF733FD064609E0286AFA
:104AA00040F004002862EEE7FFF72AFD811B59451C
:104AB0005BD8286A8007F7D50BE0FFF721FD064693
:104AC00004E0FFF71DFD811B59454ED8286A800779
:104AD000F7D41FB1E86920F08050E861E069A8B31D
:104AE0006968C1F38101022946D00228484606D0F0
:104AF000C8F86000FFF704FD044639E035E047469A
:104B0000C8F86000FFF7FCFC064604E0FFF7F8FC7D
:104B1000801B022829D828688001F7D4206AB0F5C4
:104B2000803F05D16868A16820F4003008436860C0
:104B3000D4E908010843696821F4741108436860E6
:104B4000C7F860A0FFF7DCFC044605E023E0FFF7B0
:104B5000D7FC001B022808D828688001F7D51AE086
:104B6000FFF7CEFC001B022802D90320BDE8F88F16
:104B700028688001F4D40EE00128F7D06868226A22
:104B800000F48031914204D1616A00F470108842CF
:104B900001D00120EAE70020E8E700000010024011
:104BA00000004242800442421C000020007000408D
:104BB0007047704710B5040003D094F83D0010B161
:104BC00007E0012010BD002084F83C00204600F0E2
:104BD0001EF8022084F83D00211D206800F090FBA3
:104BE000012084F8460084F83E0084F83F0084F8F1
:104BF000400084F8410084F8420084F8430084F8BF
:104C0000440084F8450084F83D00002010BD704742
:104C100090F83D10012901D001207047022180F851
:104C20003D100168CA6842F00102CA6000680B4981
:104C3000884208D0B0F1804F05D00949884202D09F
:104C40000849884204D1816801F00701062903D090
:104C5000016841F00101016000207047002C014013
:104C6000000400400008004070472DE9F041044670
:104C70000068C66805694FF00007A90713D5B1079A
:104C800011D5F91E01610120207720688069800715
:104C9000204602D0FFF7E8FF04E000F07EF820464F
:104CA00000F07CF82777680716D5700714D52168BF
:104CB0006FF004000861022020772068806910F4FA
:104CC000407F204602D0FFF7CFFF04E000F065F8F8
:104CD000204600F063F82777280715D5300713D54D
:104CE00021686FF008000861042020772068C069FF
:104CF0008007204602D0FFF7B7FF04E000F04DF830
:104D0000204600F04BF82777E80616D5F00614D5B4
:104D100021686FF010000861082020772068C069C2
:104D200010F4407F204602D0FFF79EFF04E000F021
:104D300034F8204600F032F82777E80708D0F0076B
:104D400006D021686FF001000861204600F028F8C5
:104D5000280608D5300606D521686FF08000086166
:104D60002046FFF725FF680608D5700606D521689E
:104D70006FF040000861204600F01CF8A8060AD534
:104D8000B00608D521686FF0200008612046BDE814
:104D9000F041FFF70EBFBDE8F0817047704700009B
:104DA00000680349884201D1FFF7B0BB704700009B
:104DB000000800407047704770470000F8B5016870
:104DC00004460868CA684B6910F00F0F4FF00005E1
:104DD00059D003F0010602F49077374365D0C1073C
:104DE00005D0D10503D5616C41F001016164410733
:104DF00005D5D90703D0616C41F0020161648107D8
:104E000005D5D90703D0616C41F004016164010745
:104E100007D502F02001314303D0616C41F0080155
:104E20006164616C00293AD0800604D5900602D5F1
:104E3000204600F0F2FA20684069616CC0F38010EF
:104E4000090700D460B3204600F0C0FA206840692A
:104E5000400621D52068143050E8001F21F04001A1
:104E600040E80012002AF5D1E06BA8B16D4941631A
:104E7000E06BFFF7F7F9002811D0E06B416B01B050
:104E8000BDE8F040084783060FD593060DD52046B0
:104E9000BDE8F84000F0C1BA2046FFF78DFFF8BD2D
:104EA0002046FFF789FF6564F8BD266B2023012E9D
:104EB0007CD1C6067AD5D60678D5086848680090B1
:104EC00048694FF00206400640D5E16B086840682B
:104ED0000004000CE8D0A28D8242E5D9E085886903
:104EE00020282DD020680C3050E8001F21F480715C
:104EF00040E80012002AF5D12068143050E8001F65
:104F000021F0010140E80012002AF5D12068143098
:104F100050E8001F21F0400140E80012002AF5D1BE
:104F200084F84230256320680C3050E8001F21F0DF
:104F3000100140E80012002AF5D1E06BFFF76FF98D
:104F40006663A08DE18D401A81B22AE0A08DE18DCB
:104F5000401A81B2E08D0028A6D00029A4D0206894
:104F60000C3050E8002F22F4907240E80027002F08
:104F7000F5D12068143050E8002F22F0010240E8FB
:104F80000027002FF5D184F84230256320680C30CB
:104F900050E8002F22F0100240E80023002BF5D14A
:104FA00066632046FFF707FFF8BDFFE705062BD530
:104FB000150629D594F841002128F5D1A068B0F54F
:104FC000805F01D12069B0B1206A411C2162216853
:104FD00000784860E08C401E0004000CE084E3D1BF
:104FE0002068C16821F08001C1602068C16841F07B
:104FF0004001C160D8E7206A0088C0F3080048601B
:10500000206A801C2062E5E74006CDD55006CBD54E
:10501000CA68204622F04002CA6084F8413000F09D
:1050200076F8C1E7BD53000870B5040004D094F8C9
:105030004100002510B106E0012070BD84F8405009
:10504000204600F023F8242084F841002068C1683D
:1050500021F40051C160204600F040FA2068016947
:1050600021F4904101612068416921F02A014161E8
:105070002068C16841F40051C1606564202084F853
:10508000410084F842006563002070BD30B585B0F2
:105090000024009401940294039400681849884203
:1050A0002CD11848816941F480418161816901F402
:1050B00080410491816941F0040181618069124D50
:1050C00000F0040004904FF4007000900220019062
:1050D0000320039069462846FFF71EF92815CDE9FD
:1050E0000004694628460294FFF716F9002211468B
:1050F0002520FFF79DFA2520FFF78CFA05B030BD7B
:10510000003801400010024000080140704770471D
:10511000FEE70000F0B585B0002428480094019413
:1051200002940394816941F010018161816901F069
:1051300010010491816941F020018161816901F0D0
:1051400020010491816941F00401816180691C4F53
:1051500000F00400049001220E213846FFF7CAF93E
:10516000184E7814CDE90006694602941648FFF7F8
:10517000D3F801250095CDE9016469463846FFF76B
:10518000CBF80E20CDE900050220CDE902406946AA
:105190003846FFF7C1F8002211460620FFF748FA0B
:1051A0000620FFF737FA002211462820FFF740FAC1
:1051B0002820FFF72FFA05B0F0BD000000100240D4
:1051C0000008014000001110001001400C4810B50B
:1051D0000A4901604FF4E1314160002181600C22F5
:1051E000C160C0E904128161C161FFF71DFF0028A1
:1051F00003D0BDE81040FFF710B810BD00380140E3
:1052000080000020FEE7FEE71CB500F045FC1248D8
:105210000124CDE900400023802210A1114800F0B4
:1052200067FD0D480023001DCDE9004080220EA13E
:105230000F4800F05DFD084800230830CDE900402C
:1052400080220CA10D4800F053FD00F033FCBDE8B6
:105250001C40002000F07EBC040000205461736BF1
:1052600031000000795300085461736B3200000074
:10527000955300085461736B33000000A15300087C
:1052800010B500F063FD012803D0BDE8104000F028
:1052900019BD10BD30B58FB028216846FEF797FFC5
:1052A00014210AA8FEF793FF0120010400248DE8D1
:1052B000130004904FF4E010CDE908100225079583
:1052C0006846FFF7E9FA08B172B6FEE70F20CDE9AC
:1052D0000A054FF48060CDE90C4002210AA80E9423
:1052E000FFF7D8F9002801D072B6FEE70FB030BD45
:1052F000704700000148FFF7B8BC0000C80000205C
:10530000F0B50268194C1A4D1A4E4FF08047A04272
:1053100005D0B84203D0A84201D0B04203D122F058
:1053200070034A681A43A04205D0B84203D0A8428D
:1053300001D0B04203D122F44073CA681A434B69CA
:1053400022F080021A4302608A68C2620A6882629E
:10535000A04201D109690163012141610169C907C5
:1053600003D0016921F001010161F0BD002C014071
:105370000004004000080040054C4FF47A750221FB
:105380002046FFF7AFF8284600F0CCFBF7E7000017
:10539000000801404FF4FA64204600F0C3FBFBE72D
:1053A000054C40F6B83508212046FFF79BF8284603
:1053B00000F0B8FBF7E700000008014010B5406AB4
:1053C0000021C185C184FFF7F7FC10BD01680C31D5
:1053D00051E8002F22F4907241E80023002BF5D110
:1053E0000168143151E8002F22F0010241E8002346
:1053F000002BF5D1016B012909D101680C3151E86D
:10540000002F22F0100241E80023002BF5D12021CB
:1054100080F8421000210163704708B590F84210EF
:10542000222901D0022008BD81684FF4805399429F
:1054300001D1026922B1826A99421BD049B10AE0C6
:105440000268816A5268C2F308020A80816A891C74
:1054500008E0016971B10168496801F07F011170CC
:10546000816A491C8162C18D491E0904090CC185EC
:1054700003D01BE001684968F1E70168CA6822F0BF
:105480002002CA600168CA6822F48072CA6001689A
:105490004A6922F001024A61202180F8421000216D
:1054A0004163026B012A03D0FFF730FE002008BDE4
:1054B000016301680C3151E8002F22F0100241E82D
:1054C0000023002BF5D101680A68D20602D50A68CC
:1054D00049680091818DFFF76EFCE7E770B50446DF
:1054E00000680169E26821F4405111430161A1683B
:1054F00020690143606901432068C26841F20C637E
:105500009A430A43C26020684169A26921F440714C
:10551000114341611E492068884202D1FFF786F994
:1055200001E0FFF773F900EBC00101EB00116068C7
:1055300064228000B1FBF0F3B3FBF2F36FF01806C6
:105540007343B1FBF0F5B1FBF0F605EB83053223B5
:1055500003EB0515B5FBF2F5B6FBF2F605F0F00529
:1055600005EB0615B1FBF0F6B1FBF0F0B0FBF2F085
:105570006FF01801484306EB800003EB0010B0FB0E
:10558000F2F0216800F00F002844886070BD000030
:10559000003801400148FFF711BC000080000020E6
:1055A000FEE70907090E002804DB00F1E02080F87F
:1055B0000014704700F00F0000F1E02080F8141D87
:1055C000704702E008C8121F08C1002AFAD17047CC
:1055D0007047002001E001C1121F002AFBD1704773
:1055E0001CB507490120CDE900010023802205A157
:1055F000074800F07DFBBDE81C4000F0F9BA000050
:105600000000002053746172745F5461736B00007A
:105610000952000808490748086062B6FEF77EFF95
:10562000FFF738FEFFF776FDFFF7D0FDFFF7D8FF55
:10563000FEE700000040000808ED00E02DE9F04121
:105640001E4D0F460446EE682868001D00F0DEF986
:1056500038B9286890F82C100120884029698143C6
:105660002961601C15D1A7B115492A684868906066
:105670002B688268DA602A688368121D5A602A687B
:10568000121D8260286841610868401C0860BDE8FE
:10569000F08128683444B4424460296805D2E86B3C
:1056A000BDE8F041091D00F0D2B9A86B091D00F05A
:1056B000CEF9A86A8442EAD2AC62E8E72000002072
:1056C000C40100202DE9F041044600F0E5F9364E12
:1056D000B068401CB0603068344F10B1706940B39E
:1056E0002DE03460B068012829D1002505EB850044
:1056F00007EB800000F09DF96D1C052DF6D32B48BB
:10570000643000F096F92948783000F092F9274883
:105710008C3000F08EF92548A03000F08AF923483B
:10572000B43000F086F921486430B0631430F0637F
:1057300005E03068E16AC06A884200D83460706A67
:105740000121401C7062E06A32698140114331617D
:1057500000EB800007EB80004068A0608168E1609A
:105760008268211D51608160E06A00EB800007EBD8
:105770008001616157F82010491C47F8201000F0A3
:1057800099F9706900280CD03068E16AC06A8842D3
:1057900007D207494FF080500860BFF34F8FBFF327
:1057A0006F8FBDE8F0810000200000201001002074
:1057B00004ED00E010B50446006B00F085F92046CA
:1057C000BDE8104000F080B90E484FF48841420710
:1057D00006D0C01D0B4920F00700411AC1F58841D1
:1057E000094B00220144C3E900020839143B21F0AF
:1057F000070119604A600A600A1AC0E900129A603B
:105800005A607047D801002074000020134E144DD8
:10581000A6F1A0074FF08058DFF8489011E000F0A3
:105820003BF9F068C468201D00F0F0F8A868401E3D
:10583000A8606868401E686000F03CF92046FFF7E9
:10584000B9FF68680028EAD138680128F9D9C9F891
:105850000080BFF34F8FBFF36F8FF2E7B0010020DE
:105860002000002004ED00E02DE9F0479946DDE935
:10587000096480466FF00303206B03EB8202089DEE
:10588000104420F0070761B1002023180A5C83F858
:1058900034200A5C12B1401C1028F6D3002084F892
:1058A0004300052D00D30425201DE56200F0CCF84F
:1058B00004F1180000F0C8F82461C5F10500646225
:1058C000A0614A464146384600F08EF82060002E1E
:1058D00000D03460BDE8F08730B5114900E01146D2
:1058E0000A688242FBD34B685C18844203D140684B
:1058F00018444860084643681C18944209D1084C73
:10590000143C2468A24209D052681A4442600A68D2
:1059100012680260814200D0086030BD0460F9E77F
:10592000740000200548816B096821B1816BC9684A
:105930000968816270474FF0FF31FAE720000020CC
:10594000F02080F31188BFF34F8FBFF36F8FFEE716
:1059500070B50446002500F073F9224E306808B98E
:10596000FFF732FFCCB304F00700C0F11000C143D1
:105970008C4232D8211800292FDD706881422CD842
:10598000184A14321046046801E022460446606852
:10599000884202D220680028F7D1306884421CD0A7
:1059A00015682068106060680835421A102A04D90A
:1059B000601842606160FFF78FFF61687068401A8D
:1059C0007060B268904200D2B06041F00040606008
:1059D00000202060F068401CF06000F04DFA28467E
:1059E00070BD00006000002010B5031F4FF08074F0
:1059F0001C601B1F21F001011960191F024B0B6075
:105A0000143940380A6010BD41590008D0E901320C
:105A100001699A60D0E901235A604A68824201D143
:105A200082684A60002202610868401E08600868B7
:105A3000704700F108014FF0FF32C0E90112C16068
:105A4000016100210160704700210161704730B59C
:105A50000C68621C02D000F1080202E0026904E056
:105A60001A4653681D68A542FAD953684B6099607D
:105A70008A60516008610168491C016030BD42685C
:105A80004A6093688B60936859609160086101680F
:105A9000491C016070470000F02080F31188BFF3BB
:105AA0004F8FBFF36F8F02480168491C0160704738
:105AB0007C00002003490868401E086001D180F383
:105AC000118870477C00002070B500281BD0A0F121
:105AD00008046068002816DA2168002913D120F034
:105AE0000040606000F0ACF8074D606869680844E9
:105AF00068602046FFF7F0FE2869401C2861BDE879
:105B0000704000F0B9B970BD600000204FF0E02097
:105B100000210161816102494161072101617047F2
:105B20003F19010010B5020009D000F089F80021EA
:105B30001046FFF783FD00F09FF9002807D10449C4
:105B40004FF080500860BFF34F8FBFF36F8F10BDD1
:105B500004ED00E070B50446FFF79EFF214D04B947
:105B60002C68201DFFF752FF58B9E06A1E4A00EB6F
:105B7000800152F8211021B9012181402869884310
:105B80002861A06A18B104F11800FFF73FFF686AA6
:105B9000401C68622868844208D11348211DA03047
:105BA000FFF76DFF6868401C686004E0A868401E4D
:105BB000A860FFF7B7FEFFF77DFF2868844202D098
:105BC0002046FFF7F7FD686900280AD0286884425C
:105BD00007D106494FF080500860BFF34F8FBFF3E5
:105BE0006F8F70BD200000201001002004ED00E048
:105BF0007CB50F480025CDE900502B4680220DA131
:105C00000E4800F075F80A4C2C3C01280ED1F0200B
:105C100080F31188BFF34F8FBFF36F8F4FF0FF30CA
:105C2000A06201206061E56000F034F8206B7CBD6B
:105C30004C00002049444C45000000000D5800086D
:105C40000248416B491C416370470000200000205E
:105C50000E4A506B10B10120D06170470020D06116
:105C600010690B49B0FA80F0C0F11F0000EB800012
:105C700001EB800000F108034168496841609942E6
:105C800001D149684160C868106070472000002059
:105C900010010020094810B5016841F47F0101603E
:105CA000016841F07F410160FFF730FF04490020A7
:105CB0000860FEF739FA002010BD000020ED00E07A
:105CC0007C00002010B5F02080F31188BFF34F8FC7
:105CD000BFF36F8F00F048F818B104494FF08050BF
:105CE0000860002080F3118810BD000004ED00E082
:105CF0002DE9FF5F8346DDE90E87994616468A4601
:105D00009000FFF725FE05001DD04C20FFF720FE78
:105D1000040015D04C21FEF75AFA25630021CDE985
:105D20000241CDE900874B46324651465846FFF7BF
:105D30009BFD2046FFF7C6FC012004B0BDE8F09FA4
:105D40002846FFF7C1FE4FF0FF30F6E705484169EE
:105D500019B1406B18B10020704701207047022034
:105D600070470000200000202DE9F041404E002542
:105D7000706B28B1B069401CB0612846BDE8F08165
:105D8000F468641CF46008D1B06BF16BB163F0632C
:105D9000306A401C3062FFF7C5FDB06ADFF8D4E01E
:105DA00084420BD34FF0000CB06B0068A0B1B06B15
:105DB000C068C1684868844211D2B0623068C06A65
:105DC00000EB80005EF82000012800D90125F06971
:105DD0000028D2D00125D0E74FF0FF30EDE7D1E920
:105DE000023248699A60D1E902235A6043680A1D69
:105DF000934201D1CB684360C1F814C003685B1EB5
:105E00000360886A88B1D1E907379F60D1E9073715
:105E10007B60476801F118039F4201D10B6A436020
:105E2000C1F828C003685B1E0360C86A0123376994
:105E300083403B43336100EB80000EEB8000406801
:105E400088608368CB6083685A608260C86A00EBB0
:105E500080000EEB80024A615EF82020521C4EF852
:105E60002020C86A3168C96A88429DD901259BE70C
:105E700020000020100100202DE9F0470024A14659
:105E8000FFF70AFE3E4D686B401E6863686B002892
:105E900071D1A868DFF8ECC000264FF00108E0BB24
:105EA00069E0DCF80C00C468D4E90721A06A9160BD
:105EB000D4E907125160426804F118018A4201D105
:105EC000216A4160A6620168491E0160D4E902218D
:105ED00060699160D4E9021251604268211D8A42D2
:105EE00001D1E268426066610268521E0260E06AA7
:105EF0002F69434608FA00F23A432A61214A00EB2F
:105F000080008C3A02EB80004068A0608768E76000
:105F1000876879608160E06A00E00FE000EB800054
:105F200002EB8001616152F82010491C42F82010F8
:105F3000E06A2968C96A884200D3EB61DCF8000096
:105F40000028AED10CB1FFF7EDFCAC693CB147467F
:105F5000FFF70AFF00B1EF61641EF9D1AE61E86995
:105F600048B109494FF080504FF001090860BFF374
:105F70004F8FBFF36F8FFFF79DFD4846BDE8F08759
:105F8000200000209C01002004ED00E0010202033B
:105F90000405060708090A0B0C0D0E0F101000006F
:105FA00000000000000001020304060708090000C9
:105FB0000000010203040000D85F00080000002078
:105FC00080000000C25500085860000880000020D2
:105FD00058490000D25500080000000000000000F1
:105FE00000000000000000000100000010000000A0
:105FF0000000000000127A00000000000000000015
:106000000000000000000000000000000000000090
:106010000000000000000000000000000000000080
:10602000000000000000000004000000000000006C
:106030000000000000000000000000000000000060
:106040000000000000000000000000000000000050
:0860500000000000AAAAAAAAA0
:04000005080040EDC2
:00000001FF
