:020000040800F2
:1040000020040020054100080D4100080F41000870
:10401000114100081341000815410008000000008C
:104020000000000000000000000000001741000830
:1040300019410008000000001B4100081D41000854
:104040001F4100081F4100081F4100081F410008D0
:104050001F4100081F4100081F4100081F410008C0
:104060001F4100081F4100081F4100081F410008B0
:104070001F4100081F4100081F4100081F410008A0
:104080001F410008214400081F4100081F4100088B
:104090001F4100081F4100081F4100081F41000880
:1040A0001F410008654600081F410008FD45000843
:1040B0001F4100081F4100081F4100081F41000860
:1040C0001F4100081F4100081F4100081F41000850
:1040D0001F4100081F410008794600081F410008E1
:1040E0001F4100081F4100081F410008DFF810D0E1
:1040F00000F084F9004800478D470008AFF30080C6
:10410000200400200648804706480047FEE7FEE7F7
:10411000FEE7FEE7FEE7FEE7FEE7FEE7FEE7FEE777
:10412000AD450008ED4000082DE9FE4F81EA03048B
:1041300004F0004421F0004100944FF0000B23F004
:10414000004350EA01045ED052EA03045BD0C3F39B
:104150000A54C1F30A552C44A4F2F3340194A0FB91
:104160000254C1F3130141F48011C3F3130343F468
:10417000801301FB024400FB034E840A970A44EAC1
:10418000815447EA8357A4FB076802958D0A05FB13
:1041900007854FEA932C04FB0C542705029D4FEA38
:1041A000065847EA1637B5EB08056EEB070C870E85
:1041B000920E47EA811742EA8312A7FB0201B6EB8F
:1041C0000B0164EB00042B0D43EA0C335E1844EB47
:1041D0001C50DA465146E7FB0201C5F313044FEACF
:1041E0000B3343EA14534FEA0432019C43EA0603BB
:1041F000A4F10C040294009CCDE900B400F0AFF8E7
:1042000003B0BDE8F08F00200146F9E770B521F05A
:10421000004303430CD0C1F30A550024D5EB040539
:1042200064EB0403D617AD1AB34102DB002001464C
:1042300070BD201841EB025170BD0EB5C10F80EA70
:10424000E0700844CA07002140F233438DE80E00B5
:104250000A460B4600F083F803B000BD01F00043AE
:1042600030B421F0004150EA010206D00A0DA2F557
:104270006072C1F31301002A02DC30BC00207047D9
:10428000440F44EAC104C100E01830BC00EBC25046
:1042900000F01FB8202A04DB203A00FA02F10020C7
:1042A00070479140C2F1200320FA03F31943904074
:1042B0007047202A04DB203A21FA02F000217047DF
:1042C00021FA02F3D040C2F120029140084319467E
:1042D00070470029A8BF7047401C490008BF20F064
:1042E0000100704710B4B0FA80FC00FA0CF050EAFC
:1042F000010404BF10BC704749B1CCF1200421FA7D
:1043000004F411FA0CF118BF012121430843A3EB77
:104310000C01CB1D4FEA00614FEA102042BF002084
:1043200010BC704700EBC35010440029A4BF10BC60
:104330007047401C490008BF20F0010010BC7047C6
:1043400010B5141E73F1000408DA401C41F100019D
:1043500092185B411A4301D120F0010010BD2DE9F4
:10436000F04D92469B4611B1B1FA81F202E0B0FAEB
:1043700080F220329046FFF78DFF04460F4640EA58
:104380000A0041EA0B0153465A46084313D011462E
:1043900053EA010019D0C8F140025046FFF789FFE7
:1043A00005460E46504659464246FFF773FF0843FE
:1043B00005D0012004E020463946BDE8F08D0020FC
:1043C000054346EAE0762C4337430A986305E40A3E
:1043D000A0EB08000022FD0A44EA47540A3002D547
:1043E00000200146E9E7010510196941DDE90845AA
:1043F00000196941BDE8F04DA2E70000064C074DE9
:1044000006E0E06840F0010394E8070098471034A4
:10441000AC42F6D3FFF76EFED8470008F847000815
:1044200006480168890108D550F8041F41F0007161
:104430000160C16F21F00101C167704700000240B7
:1044400000B502464FF47A7302E0184600F004F813
:10445000521E501CF9D100BD00EBC000C1004FF04E
:10446000E020416100218161052101610169C903E9
:10447000FCD5016921F0010101617047164881698D
:1044800041F004018161816941F0080181611348B3
:10449000016821F070610160016821F070410160E4
:1044A0000F490A6822F00F020A60026842F00072A7
:1044B0000260026842F000520260086840F00200A8
:1044C000086006494FF440001031086004494FF479
:1044D0008030103108607047001002400008014031
:1044E000000C014003B50098C068BDF804104840B6
:1044F0000099C8600CBD00F001B800000CB50022A6
:10450000019200922748016841F4803101604FF424
:10451000A063016801F4003100910199491C0191E7
:10452000009911B901999942F3D10168890302D523
:104530000121009100E000920099012930D11A492F
:104540000A6842F010020A600A6822F003020A6058
:104550000A6842F002020A604168416041684160B5
:10456000416841F480614160416821F47C114160FF
:10457000416841F4E8114160016841F080710160D7
:1045800001688901FCD5416821F00301416041685F
:1045900041F0020141604168C1F381010229FAD171
:1045A0000CBD0000001002400020024010B50F4872
:1045B000016841F00101016041680D4A114041600C
:1045C00001680C4A11400160016821F480210160FA
:1045D000416821F4FE0141604FF41F018160FFF743
:1045E0008AFF05494FF00060086010BD00100240CE
:1045F0000000FFF8FFFFF6FE08ED00E010B51148DF
:104600000188C9061CD50F492C3109880E4C218020
:104610000C49303109886180018821F01001018046
:1046200060882188401AFFF708FE084A084BFFF708
:104630007BFD4FF0FF32FFF7E9FDFFF70FFE6060F3
:1046400010BD0000102C0140040000209CC420B0CC
:104650007268A13F0248018821F001010180704782
:10466000002C01400348018821F001010180FFF77F
:10467000F1BF0000102C01400A4A10880A49830645
:1046800002F1040006D50288084B08781A54401C31
:10469000087070471388DB06FBD51288008801205C
:1046A0004870704700440040000000200C000020CB
:1046B0002748816941F004018161C16941F40031F9
:1046C000C1612448016841F440710160016841F40E
:1046D00000610160016821F480610160016821F4DA
:1046E00040510160016821F400410160016841F41A
:1046F00080410160184940F239100880081D018886
:1047000021F480510180018821F480610180011D24
:104710000A8822F440520A80018841F03001018069
:104720000E4A11684FF6FF0319400D4B41F44071DA
:10473000194311600B4A302111700B4A4021C2F815
:104740000011018842F20C02114301807047000001
:104750000010024000080140084400400CED00E059
:104760000000FA0526E400E004E000E002E008C8EA
:10477000121F08C1002AFAD170477047002001E0DB
:1047800001C1121F002AFBD17047000072B6094810
:104790000949086062B6FFF78BFFFFF76FFE074C11
:1047A0004FF4FA75D4E90401FFF79CFE2846FFF7A1
:1047B00047FEF7E70040000808ED00E0C0470008AA
:1047C0000008014040000000000801408000000097
:1047D000000C014001000000F84700080000002024
:1047E0000C0000006C470008044800080C00002082
:1047F000140400007C4700080000000000000000D6
:0448000000000000B4
:04000005080040EDC2
:00000001FF
