:020000040800F2
:10000000E007002005010008B7280008C12100080A
:10001000B52800085105000839300008000000002C
:10002000000000000000000000000000492D000852
:100030006D050008000000002D2A00084B2D000867
:100040001F0100081F0100081F0100081F01000810
:100050001F0100081F0100086F0500081F010008AC
:100060001F0100081F0100081F0100081F010008F0
:1000700055050008610500081F0100081F01000860
:100080001F0100081F0100081F0100081F010008D0
:100090001F0100081F0100081F0100081F010008C0
:1000A0001F0100081F0100081F0100081F010008B0
:1000B0001F0100081F0100081F0100081F010008A0
:1000C0001F0100081F0100081F010008412C000843
:1000D0001F0100082D3000081F0100081F01000843
:1000E000750500081F0100081F010008DFF810D087
:1000F00000F03CF80048004789330008AFF3008067
:10010000E00700200648804706480047FEE7FEE774
:10011000FEE7FEE7FEE7FEE7FEE7FEE7FEE7FEE7B7
:10012000AB2D0008ED000008202A04DB203A21FA5C
:1001300002F00021704721FA02F3D040C2F1200200
:100140009140084319467047D2B201E000F8012BF4
:10015000491EFBD270470022F6E710B513460A4647
:1001600004461946FFF7F0FF204610BD064C074D28
:1001700006E0E06840F0010394E807009847103477
:10018000AC42F6D3FFF7B6FFE8370008083800089E
:100190001FB56424012303A98DE81A000246102329
:1001A000A121034800F060FE9DF80C0004B010BDD2
:1001B0003C0000203EB54FF40054A04202D2831808
:1001C000A34204D9BDE83E4006A003F01DB84FF499
:1001D0007A738DE80E0002461023A121074800F033
:1001E00043FE3EBD626F756E64617279206F766505
:1001F00072666C6F77210D0A000000003C00002041
:1002000013B584B06424012305A98DE81A000246C1
:100210001023A021024800F055FF06B010BD0000D9
:100220003C000020FEB50F464FF400511446064630
:10023000884202D2301988421ED9BDE8FE4010A083
:1002400002F0E2BF06F01F00C0F12005AC4200D86A
:1002500025464FF47A700097CDE9015010233246BD
:10026000A0210D4800F02EFF052000F06FFB701953
:1002700086B2601B2F4484B2002CE3D1FEBD000087
:10028000626F756E64617279206F766572666C6FED
:1002900077210D0A000000003C00002010B503F09B
:1002A00033F9022804D0034C207003F029F8606071
:1002B00010BD00002C00002038B503226946102034
:1002C000FFF778FF02258DF800505A208DF80100C5
:1002D0006B208DF80200032269461020FFF7A2FF71
:1002E0000A2000F033FB114C257000F0BFF8A0602D
:1002F0002078012805D0042803D0052801D007283C
:1003000002D102F0FDFF6060207802280CD1A068C5
:1003100003F030F8002807D102F0F2FF014603F0A5
:1003200029F8002800D0A16038BD00002C00002072
:10033000084B10B51A780848032A07D0044601462E
:100340004FF48042986800F05BF82046BDE810400A
:1003500000F09AB82C000020004000087CB5264D23
:100360002878012809D0042827D005283FD007285D
:1003700041D1BDE87C4002F09FBA082269460020C6
:1003800002F082FE9DF80610BDF8040061F31F40E4
:100390009DF8071040EA0164A4F5FA7043F60D6178
:1003A000884200D30024002C25D00821686800F082
:1003B00047F8204602F072FF10E00821686800F05C
:1003C0003FF8686802F076F902F016F90028FBD0D1
:1003D00000F022FB0948007800280CD0686802F081
:1003E000C9FF002807D0BDE87C4003F03DB8BDE858
:1003F0007C4002F0B1BA7CBD2C000020000000203F
:1004000070B586B014460D46064600F051FB04F266
:10041000FF30810A0948D0E90420CDE90251CDE935
:10042000002004A9684600F0A3FA22463146284677
:1004300000F030F900F0F0FA06B070BDC8350008E1
:1004400030B585B00D46044600F032FB064A04A9DB
:10045000D2E900038DE83900684600F089FA00F01F
:10046000DBFA05B030BD0000C835000810B5132018
:10047000FFF78EFEBB2801D0014810BD014810BD1A
:100480000080000800C0000870B5066805464FF4FB
:100490000050B0EB164F05D16C68AC4202D30C484B
:1004A000844201D3012070BD172002F0B5FE252043
:1004B00002F0B2FE4FF0E02100200861486188613F
:1004C00072B686F3088803480560A047002070BD17
:1004D0000000010808ED00E00449884201D1BB2179
:1004E00000E0AA211320FFF78BBE000000C0000827
:1004F00038B51248006841680168002441680091DD
:100500000168416800910168416800910168406894
:1005100000900B4804700B48047000F0DBFB0A49A4
:1005200008600A494FF48072081F0160A0F8044275
:10053000BDE83840014801F0D0BB0000780300203E
:1005400000000020040000200800002074010020AA
:10055000FEE70000014800F01FB90000E80000209D
:10056000014800F019B900002C010020704701205B
:1005700000F0B4BA4FF4005000F0B0BA72B6FEE723
:1005800006490020C8610648016941F00401016183
:10059000016941F04001016170470000C003002083
:1005A00000200240064A0021D16106490A6942F052
:1005B00002020A614861086940F040000861704722
:1005C000C003002000200240044B0022DA61044AEC
:1005D000136943F00103136101807047C0030020D9
:1005E0000020024014490020CA68D306134A04D5EB
:1005F000D06940F00200D0611020CB685B0705D5C0
:10060000D36943F00103D36140F00400CB69DB07F9
:1006100007D0D36943F00403D361CA6922F0010211
:10062000CA61A0F58072013A01D0C8607047C869FC
:1006300020F00100C861704700200240C003002084
:1006400070B5044600F046FB0546114E09E0601CFB
:1006500007D024B100F03EFB401BA04201D903208B
:1006600070BDF068C007F2D1F068800601D5202087
:10067000F060F068C00605D4F069C00702D1F068E8
:10068000400703D5FFF7AEFF012070BD002070BD0D
:10069000002002402DE9F04115460E460746002491
:1006A00007E03019391902880023012000F0BEF953
:1006B000A41CAC42F5D3BDE8F08110B590F8211030
:1006C0000022022905D00421816380F82020012026
:1006D00010BD01680B6823F00E030B6001680B6806
:1006E00023F001030B6090F84030012404FA03F179
:1006F000C36B596080F8214080F82020104610BD5F
:1007000010B590F821100024022903D00421816340
:1007100001243DE001680A6822F00E020A600168C7
:100720000A6822F001020A601A4A0168914201D166
:10073000012121E0174A1432914201D110211BE01E
:10074000144A2832914201D1891515E0114A3C32F0
:10075000914201D189140FE00E4A5032914202D1E8
:100760004FF4803108E00B4A6432914202D14FF4D9
:10077000801101E04FF08071064A083A5160012172
:1007800080F82110002180F82010416B01B18847CA
:10079000204610BD080002402DE9F05FC16B0B68D8
:1007A00001680A68046C4FF0040C0CFA04FC4A4D12
:1007B000DFF828A14A4E4B4FDFF82CB1DFF82CE1CF
:1007C0001CEA030F2DD05FEA427C2AD50A68920604
:1007D00003D40A6822F004020A600168A94201D128
:1007E000042119E0514501D1402115E0B14202D167
:1007F0004FF4806110E0B94202D14FF480410BE028
:10080000594502D14FF4802106E0714502D14FF4E1
:10081000800101E04FF080612F4A083A5160C16ABF
:100820003BE04FF0020808FA04F818EA030F4FF013
:1008300000094FF0010C35D05FEA827832D50A68A2
:10084000920605D40A6822F00A020A6080F821C0E4
:100850000168A94201D1022119E0514501D12021AD
:1008600015E0B14202D14FF4007110E0B94202D15B
:100870004FF400510BE0594502D14FF4003106E02E
:10088000714502D14FF4001101E04FF00071124A9E
:10089000083A516080F82090816A00291AD0BDE89A
:1008A000F05F08470825A5401D4213D0120711D557
:1008B0000A6822F00E020A6090F84010C26B0CFA2F
:1008C00001F15160C0F838C080F821C080F8209054
:1008D000016BE2E7BDE8F09F080002401C00024007
:1008E0003000024044000240580002406C000240C8
:1008F00030B528B302C8134A14230A44B2FBF3F2FA
:100900009200C263104A8263022242770B6843F668
:10091000F0729343D0E900242243D0E902452C43EE
:1009200022430469224344692243846922431A43CF
:100930000A6000214163012242770177084630BDF9
:10094000012030BDF8FFFDBF0000024070B5044635
:1009500000F0C0F90546601C02D004480078044449
:1009600000F0B8F9401BA042FAD370BD0C00002083
:100970002DE9F047054626480F460126017E01294C
:100980000FD00121814601762868DFF888804CF27B
:100990005034022808D0A2462046FFF751FEA8B1E5
:1009A00031E00220BDE8F0872046FFF749FE08BB92
:1009B0000120FFF7E5FD2046FFF742FED8F81010B2
:1009C000064621F00401C8F810101CE04FF0FF307B
:1009D0003860AC6811E02046FFF7E4FD5046FFF7B1
:1009E0002FFED8F81010060021F00201C8F81010F0
:1009F00001D03C6007E004F58064D5E9020100EB1A
:100A00008120A042E7D8002189F818103046C9E7B4
:100A1000C0030020002002400348016941F080012A
:100A20000161002070470000002002402DE9F05FC6
:100A300005461D4888460024017E16461F460129AA
:100A400009D00121814601764CF2503A5046FFF719
:100A5000F7FD18B123E00220BDE8F09F012D02D080
:100A6000022D00D00425D346DFF840A015E0220176
:100A700030463946FFF758FB81B208EB4400FFF7D8
:100A8000A3FD5846FFF7DCFDDAF8102022F0010242
:100A9000CAF8102018B9641CE4B2AC42E7D30022B3
:100AA00089F81820D8E70000C00300200020024089
:100AB000064900200A69120607D5054A4A60054A18
:100AC0004A600969090600D50120704700200240EC
:100AD00023016745AB89EFCD70470000044910B58D
:100AE0000A68024202D00860FFF7F6FF10BD00005E
:100AF000140401402DE9F84FDFF8A4910024A9F176
:100B0000040B23464FF00F0809F1040AABF1040E61
:100B1000BEE00127A7403A40BA4272D1DFF884C153
:100B20004D68A5EB0C0665452BD00DDC032D34D0AC
:100B300005DC35B3012D19D0022D2FD11BE0112D6D
:100B400016D0122D2AD119E0B6F5881F19D006DC6F
:100B5000B6F5803F15D0B6F5801F1FD111E0B6F570
:100B6000001F0ED0B6F5041F18D10AE0CB6815E0BF
:100B7000CB681B1D12E0CB6808330FE0CB680C3349
:100B80000CE08B682BB1012B4FF0080303D04761B9
:100B900004E0042302E0076100E00023FF2A01D8FB
:100BA000064601E000F104064FEA840501D9A5F1EB
:100BB0002005376808FA05FC27EA0C0703FA05F553
:100BC00047EA050737604D68ED0060D5364DAE69E0
:100BD00046F00106AE61AD6924F0030605F001059B
:100BE0000095324D7719BE68A5072D0F08FA05FC50
:100BF00026EA0C06DFF8B8C0604503D14FF0000CC0
:100C000017E044E0DFF8ACC0604502D14FF0010CC2
:100C10000FE0DFF8A4C0604502D14FF0020C08E0FD
:100C2000DFF898C0604502D14FF0030C01E04FF0AF
:100C3000040C0CFA05FC4CEA060CC7F808C04D6819
:100C4000D9F80060ED024D4601D5164300E0964309
:100C50002E604D68DAF80060AD02554601D51643A6
:100C600000E096432E604D68DBF80060AD035D4602
:100C700001D5164300E096432E604D68DEF8006013
:100C8000ED03754601D5164300E096432E60641CC3
:100C90000A6832FA04F57FF43CAFBDE8F88F000033
:100CA0000804014000001110001002400000014043
:100CB00000080140000C01400010014000140140F8
:100CC0008068084000D0012070470AB10161704778
:100CD0000904FBE701488068704700000C00002011
:100CE00070B5040025D094F83D00002520B984F8A3
:100CF0003C50204600F07EFA242084F83D00206815
:100D0000016821F0010101602068016841F400419F
:100D100001602068016821F40041016000F0CCFB13
:100D20004D4B6168994201D84C4900E04C498842DA
:100D300001D2012070BD4B492268B0FBF1F1566829
:100D400026F03F060E43566062689A4206D94FF479
:100D5000967251434FF47A72B1FBF2F12268491C4A
:100D6000166A26F03F06314311626168994210D835
:100D70004900401EB0FBF1F2521CC2F30B02042AE0
:100D800001D2042022E0B0FBF1F0401CC0F30B00C4
:100D90001CE0A268F2B301EBC10303EB0116431E92
:100DA000B3FBF6F35B1C43F480431B0549D092B3BD
:100DB00001EBC10202EB0111401EB0FBF1F0401C3F
:100DC000C0F30B0040F4804040F400402168CA6941
:100DD0004CF6FF739A431043C861D4E907100143EE
:100DE0002068026822F0C00211430160D4E90301C7
:100DF00001432068826848F2FF339A4311438160BF
:100E0000D4E9051001432068C26822F0FF021143B3
:100E1000C16001E00EE016E02068016841F00101C8
:100E200001602564202084F83D00256384F83E504D
:100E3000002070BD01EB4106431EB3FBF6F35B1CC3
:100E4000B3E70120C2E701EB4101401EB0FBF1F026
:100E5000401CC0F30B00B7E7A086010080841E0091
:100E600000093D0040420F002DE9FF4F83B00026EE
:100E7000DDE910799A4693460446DDF848800096ED
:100E8000FFF728FF054694F83D0020287CD1192360
:100E9000012288492046009501F0A7FA0028F5D1E3
:100EA00094F83C0001286FD0012084F83C002068B1
:100EB0000168C90703D1016841F0010101602068A0
:100EC000016821F400610160222084F83D00402087
:100ED00084F83E0026646762A4F82A90608D20851D
:100EE0007548E062CDE9008553465A46204604998C
:100EF00001F07EF900287CD1208DDFF8C0912027F9
:100F000068B1012814D00228206801681ED041F47D
:100F1000806101602068416980690090BCE02068C0
:100F2000416981690091016841F400710160B3E099
:100F30002068016821F48061016072B6206841690F
:100F400081690091016841F400710AE041F4006197
:100F5000016072B62068416981690091016821F4DD
:100F60008061016062B697E0032865D801280CD043
:100F7000022843464FF000024946204600950BD018
:100F800001F033FAA8BB0CE091E02A464146204626
:100F900001F0CCFA68BB72E001F027FA48BB72B6E8
:100FA00033E02068016821F48061016072B6206836
:100FB0000069616A0870606A401C6062208D401E92
:100FC0002085608D401E60853D4846F2A81100686E
:100FD000B0FBF1F0C0EBC00000EB80000090401EC1
:100FE000009007D020684069C04340070DD50098A5
:100FF000F5E727E044F8306F6773A673206940F087
:101000002000206162B626731CE02068016841F46C
:101010000071016020680069616A0870606A401CA4
:101020006062218D491E2185618D491E618562B6F0
:1010300021680969017026E02A464146204601F0F0
:1010400075FA18B1012007B0BDE8F08F206800697B
:10105000616A0870606A401C6062208D401E81B227
:101060002185608D401E608520684269D243520709
:1010700012D4032903D1016821F480610160206842
:101080000069616A0870606A401C6062208D401EC1
:101090002085608D401E6085208D00287FF464AF20
:1010A00084F83D7084F83E6084F83C60CBE7022011
:1010B000C9E70000020010000000FFFF040001006B
:1010C000180000202DE9FF4F83B09A46DDE9119703
:1010D00093460446DDF84080FFF7FCFD054694F892
:1010E0003D0020287FD11923012240492046009548
:1010F00001F07BF9002876D194F83C00012872D0E9
:10110000012084F83C0020680168C90703D1016808
:1011100041F0010101602068016821F40061016073
:10112000212084F83D00402084F83E0000262664FB
:10113000C4F82480A4F82A90608D20852C48E062B1
:10114000CDE9007553465A462046049901F0CEF881
:1011500070B930E02A463946204601F021FA58B1EC
:10116000206C042804D12068016841F400710160FA
:10117000012007B0BDE8F08F606A2168007808613F
:10118000626A521C6262208D401E80B22085618D91
:10119000491E618521684B69DB435B070BD468B14D
:1011A00010780861606A401C6062208D401E2085B6
:1011B000608D401E6085208D0028CBD12A4639469F
:1011C000204601F0E7F80028CAD154F83D0B016829
:1011D00041F400710160202004F81E09E67766776B
:1011E0000020C6E7FFE70220C3E70000020010006E
:1011F0000000FFFF10B586B000210091019102911F
:10120000039100680F4988421AD10F4CA06940F041
:101210000800A061A069694600F008000490C020A1
:10122000009012200190032003900848FFF762FC11
:10123000E06940F40010E061E06900F400100490FF
:1012400006B010BD0054004000100240000C0140E8
:101250000248816802781144816070470C000020C8
:10126000074810B5016841F010010160032000F04B
:1012700075F80F2000F006F800F024F8002010BDEB
:101280000020024070B50D4D04464FF47A71287865
:10129000B1FBF0F00A490968B1FBF0F000F009FD7C
:1012A00048B9102C07D200222146501E00F036F813
:1012B00000206C6070BD012070BD00000C0000209B
:1012C000180000200C4808B5816941F001018161D6
:1012D000816901F001010091C16941F08051C16152
:1012E000C069064900F080500090486820F0E06036
:1012F00040F00070486008BD00100240000001404E
:10130000002809DB00F01F02012191404009800004
:1013100000F1E020C0F8001170470000F0B40E4B5F
:101320001B68C3F30223C3F10704042C00D904246F
:101330001D1D072D01D2002300E0DB1E012606FA49
:1013400004F56D1E0D409D409E40761E164045EAF8
:101350000601F0BC01F071BF0CED00E0064A00F0A0
:10136000070110684FF6FF03184040EA01200349C7
:1013700008431060704700000CED00E00000FA0523
:101380002DE9F0470D46040067D0DFF81881D8F842
:10139000000000F00700A8420CD2D8F8001021F09D
:1013A00007012943C8F80010D8F8000000F0070032
:1013B000A84252D120683C4E810712D5400703D580
:1013C000706840F4E06070602078000703D57068B2
:1013D00040F4605070607068A16820F0F00008432D
:1013E00070602078C00727D06068012810D031686D
:1013F000022810D0890700292FDA716821F0030133
:1014000001437160FFF766FC074641F288390CE042
:1014100031688903EFE78901EDE7FFF75BFCC11B4A
:10142000494502D90320BDE8F0877068616800F083
:101430000C00B0EB810FF0D1D8F80010404601F05D
:101440000701A9420BD9016821F007012943016076
:10145000006800F00700A84201D00120E3E72078EF
:10146000400705D57068E16820F4E06008437060CB
:101470002078000706D57068216920F4605040EAA2
:10148000C100706000F038F87168084AC1F30311B8
:10149000515CC8400649086006480068FFF7F2FE44
:1014A0000020C0E70020024000100240AE350008D6
:1014B0001800002010000020044805490068496811
:1014C000044AC1F30221515CC84070471800002053
:1014D00000100240BE35000804480549006849680C
:1014E000044AC1F3C221515CC84070471800002073
:1014F00000100240BE3500080E4B59680E4801F03E
:101500000C02042A11D0082A0FD10C48C1F38342DF
:10151000C903805C0AD55968084AC1F34041921E4C
:10152000515C054A5043B0FBF1F070470449484311
:10153000704700000010024000127A009E3500083B
:1015400000093D002DE9F84F04006FD02078BE4D12
:10155000C00747D06868C0F38100012807D06868D9
:10156000C0F38100022809D16868C00306D5286845
:10157000800337D560680028E7D033E06068B0F5B5
:10158000803F0BD010B1B0F5A02F11D0286820F407
:1015900080302860286820F4802002E0286840F429
:1015A00080302860606888B1FFF794FB064609E048
:1015B000286840F480202860F0E7FFF78BFB801B51
:1015C000642873D828688003F7D50BE0FFF782FB07
:1015D000064604E0FFF77EFB801B6428F1D82868EC
:1015E0008003F7D42078DFF8648280074FF0010A87
:1015F0004FF0000939D5686810F00C0F07D0686803
:10160000C0F38100022809D16868C00306D42868A5
:10161000800714D52069012808D110E02069B0B1F5
:10162000C8F800A0FFF756FB064605E007E1FFF704
:1016300051FB801B0228C4D828688007F7D528688A
:10164000616920F0F80040EAC10028600DE0C8F8A8
:101650000090FFF73FFB064604E0FFF73BFB801BD3
:10166000022823D828688007F7D4207800072CD5D3
:101670007748A169D9B1C0F800A0FFF72BFB064657
:1016800004E0FFF727FB801B02280FD8686A800759
:10169000F7D570484FF4FA510068B0FBF1F00090B4
:1016A00000BF0098411E0091FAD20EE07CE0C0F825
:1016B0000090FFF70FFB064604E0FFF70BFB801BD3
:1016C000022871D8686A8007F7D4207840075BD574
:1016D000E8690027C00008D4E86940F08050E8615C
:1016E000E869012700F0805000905B480168C90557
:1016F00011D40168834641F480710160FFF7EAFA72
:10170000064604E0FFF7E6FA801B64284CD8DBF8B5
:101710000000C005F6D5E06801280AD008B1052808
:1017200013D0286A20F001002862286A20F0040003
:1017300002E0286A40F001002862E06841F2883B3C
:1017400088B1FFF7C7FA064609E0286A40F00400AE
:101750002862EEE7FFF7BEFA811B59455BD8286A7D
:101760008007F7D50BE0FFF7B5FA064604E0FFF770
:10177000B1FA811B59454ED8286A8007F7D41FB1AA
:10178000E86920F08050E861E069A8B36968C1F3B6
:101790008101022946D00228484606D0C8F86000D8
:1017A000FFF798FA044639E035E04746C8F860008C
:1017B000FFF790FA064604E0FFF78CFA801B022838
:1017C00029D828688001F7D4206AB0F5803F05D178
:1017D0006868A16820F4003008436860D4E9080113
:1017E0000843696821F4741108436860C7F860A071
:1017F000FFF770FA044605E023E0FFF76BFA001BE1
:10180000022808D828688001F7D51AE0FFF762FAA5
:10181000001B022802D90320BDE8F88F2868800148
:10182000F4D40EE00128F7D06868226A00F4803111
:10183000914204D1616A00F47010884201D0012005
:10184000EAE70020E8E70000001002400000424202
:1018500080044242180000200070004070470000E1
:1018600038B50446006842688168C9434B0606D50E
:10187000CB0704D1D3435B0601D4216C05E08B0771
:1018800008D4D3431B0605D4616C01B02046BDE8E3
:10189000304008478B0601D54B0646D4D3439B0600
:1018A00043D44B060AD494F85130032B3ED0636DD9
:1018B00043F004036365C36883680093890609D411
:1018C000616D41F00101616581680091016821F05D
:1018D00040010160606D002827D02068416821F038
:1018E000E0014160012084F85100900722D0206877
:1018F000416821F003014160104DE06C40B1456347
:10190000E06CFEF7FDFE18B1606D40F040006065D0
:10191000A06C002809D04563A06CFEF7F1FE0028FA
:1019200003D0606D40F04000606538BDC1688068DC
:10193000009038BD2046FFF791FF38BD4D2C0008C0
:1019400070B5040009D0606A002540B12561656169
:10195000A56294F8510040B10CE0012070BD6068B0
:10196000B0F5827FF4D0E561F2E784F8505020466C
:1019700000F040F8022084F851002068016821F04E
:1019800040010160A088218900F4827001F40441C3
:101990000843A18901F400610843217C01F00201A0
:1019A0000843217D01F001010843218B01F40071FE
:1019B0000843217F01F03801084394F8201001F01A
:1019C00080010843218D01F400510843216808601B
:1019D000A069042101EA1040216848602068C169BB
:1019E00021F40061C1616565012084F85100002087
:1019F00070BD0000F0B585B0002504460095019546
:101A00000295039500682C49884253D12B4881697F
:101A100041F480518161816901F4805104918169AF
:101A200041F0040181618069254E00F004000490BA
:101A3000A0200090022001900320039069463046C8
:101A4000FFF758F84020CDE9000569463046029579
:101A5000FFF750F81C4E1B488027C6E90005C6E971
:101A6000025735617561B5613046F561FEF740FF9B
:101A700008B1FEF783FDE6647462134E11484436E4
:101A8000143001C61020A1C60F4846F81059443042
:101A90007561B561F561FEF72BFF08B1FEF76EFDCC
:101AA000A6640022114623207462FFF737FC23202E
:101AB000FFF726FC05B0F0BD0030014000100240E9
:101AC000000801401C000240E80000202DE9FF4F03
:101AD00081B01F469346044601250E9EFFF7FAF893
:101AE000804694F851006168012806D0B1F5827FE4
:101AF0003CD1A168C9BB042838D10298002870D015
:101B0000BBF1000FFBD0002FF9D094F85000012852
:101B10002CD04FF0010A84F850A094F8510004280A
:101B200002D0052084F851004FF00009C4F8549009
:101B3000C4F838B0E787A78702992163E786A786AC
:101B4000C4F84090C4F8449020680168490603D462
:101B5000016841F040010160E068B0F5006F606825
:101B600008D0E8B3012F47D07DE0FFE7022005B0A1
:101B7000BDE8F08F08B1012F37D1206B21680088B4
:101B8000C860206B801C2063E08E401EE0862CE045
:101B90002068816889070DD5E18E59B1012D09D1E1
:101BA000216B0988C160206B801C2063E08E401E81
:101BB000E086002520688168C9070BD0E18F49B114
:101BC000C068A16B0880A06B801CA063E08F401EE2
:101BD000E0870125FFF77EF8A0EB0800B04201E0A6
:101BE0000AE064E001D3701C4ED1E08E0028CFD112
:101BF000E08F0028CCD13CE0206B2168007808738E
:101C0000206B401C2063E08E401EE0862BE02068A5
:101C1000816889070DD5E18E59B1012D09D1216B5C
:101C200009780173206B401C2063E08E401EE08623
:101C3000002520688168C9070BD0E18F49B1C068D1
:101C4000A16B0870A06B401CA063E08F401EE08772
:101C50000125FFF73FF8A0EB0800B04202D3701C4B
:101C600001D011E086B1E08E0028D0D1E08F0028AD
:101C7000CDD142463146204600F0F0FF50B1202041
:101C8000606584F8509012E084F851A084F8509078
:101C900003206CE7A06818B92068C16880680090CC
:101CA00084F851A084F85090606D0028F1D0012094
:101CB0005DE710B5401EB0F1807F01D3012010BD5B
:101CC0004FF0E02460610F21601701F0B6FA0020A8
:101CD000A06107202061002010BD18B5034690F8D0
:101CE0004200202801D0022018BD51B14AB1012084
:101CF000186300205863184601F044F9010002D02F
:101D000005E0012018BD186B012802D0012108460A
:101D100018BD186802684068009018680C3050E8D8
:101D2000002F42F0100240E80024002CF5D1EEE72D
:101D3000F8B504460068114A90421ED1104D861530
:101D4000B5F804224AB10168406800903246204646
:101D50002968BDE8F840FFF7C0BFA5F80412FEF7F8
:101D6000B9FF0849486006482968001D814201D131
:101D700000F5807028602068E5E7F8BD0038014074
:101D800070010020040000200D4A016882B09142D9
:101D900014D10C4B01221A700A684A6800920A6832
:101DA0004A6800920A684A6800920A684968009185
:101DB0004FF48072044902B0FFF78FBF02B0704742
:101DC000003801400400002074010020F8B50168CB
:101DD00004460868CA684B6910F00F0F4FF0000501
:101DE00059D003F0010602F49077374365D0C1075C
:101DF00005D0D10503D5616C41F001016164410753
:101E000005D5D90703D0616C41F0020161648107F7
:101E100005D5D90703D0616C41F004016164010765
:101E200007D502F02001314303D0616C41F0080175
:101E30006164616C00293AD0800604D5900602D511
:101E4000204600F0E2FF20684069616CC0F380101A
:101E5000090700D460B3204600F0B0FF2068406955
:101E6000400621D52068143050E8001F21F04001C1
:101E700040E80012002AF5D1E06BA8B16D4941633A
:101E8000E06BFEF73DFC002811D0E06B416B01B028
:101E9000BDE8F040084783060FD593060DD52046D0
:101EA000BDE8F84000F0B1BF2046FFF76DFFF8BD78
:101EB0002046FFF769FF6564F8BD266B2023012EDD
:101EC0007CD1C6067AD5D60678D5086848680090D1
:101ED00048694FF00206400640D5E16B086840684B
:101EE0000004000CE8D0A28D8242E5D9E085886923
:101EF00020282DD020680C3050E8001F21F480717C
:101F000040E80012002AF5D12068143050E8001F84
:101F100021F0010140E80012002AF5D120681430B8
:101F200050E8001F21F0400140E80012002AF5D1DE
:101F300084F84230256320680C3050E8001F21F0FF
:101F4000100140E80012002AF5D1E06BFEF7B5FB66
:101F50006663A08DE18D401A81B22AE0A08DE18DEB
:101F6000401A81B2E08D0028A6D00029A4D02068B4
:101F70000C3050E8002F22F4907240E80027002F28
:101F8000F5D12068143050E8002F22F0010240E81B
:101F90000027002FF5D184F84230256320680C30EB
:101FA00050E8002F22F0100240E80023002BF5D16A
:101FB00066632046FFF7BCFEF8BDFFE705062BD59C
:101FC000150629D594F841002128F5D1A068B0F56F
:101FD000805F01D12069B0B1206A411C2162216873
:101FE00000784860E08C401E0004000CE084E3D1DF
:101FF0002068C16821F08001C1602068C16841F09B
:102000004001C160D8E7206A0088C0F3080048603A
:10201000206A801C2062E5E74006CDD55006CBD56E
:10202000CA68204622F04002CA6084F8413000F0BD
:10203000C6F8C1E7AD2D000870B5040004D094F8CF
:102040004100002510B106E0012070BD84F8405029
:10205000204600F023F8242084F841002068C1685D
:1020600021F40051C160204600F030FF2068016972
:1020700021F4904101612068416921F02A01416108
:102080002068C16841F40051C1606564202084F873
:10209000410084F842006563002070BD30B585B012
:1020A0000024009401940294039400681849884223
:1020B0002CD11848816941F480418161816901F422
:1020C00080410491816941F0040181618069124D70
:1020D00000F0040004904FF4007000900220019082
:1020E0000320039069462846FEF704FD2815CDE934
:1020F0000004694628460294FEF7FCFC00221146C3
:102100002520FFF70BF92520FFF7FAF805B030BDC1
:1021100000380140001002400008014070472DE9DE
:10212000F843044690F841001F4615460E46202805
:1021300002D00220BDE8F8838EB185B10020606432
:10214000212084F84100FEF7C5FDA5848146E58481
:10215000A0684FF02008B0F5805F02D003E00120B6
:10216000E8E7206910B1354600260EE000250CE0B6
:102170008021204600F021FFA0B9BDB115F8010B68
:1021800021684860E08C401EE084E08C4B464FF0B4
:10219000000200970028EBD14FF04001204600F0EC
:1021A0000CFF40B184F841800320C3E736F8020BEE
:1021B000C0F30800E4E784F841800020BAE77047E4
:1021C000FEE701684A69D24352050FD46FF480627A
:1021D0004A61002140F8301F202242738173026956
:1021E00042F0040202610173012070470020704731
:1021F0002DE9F84F0446006889460B9E0168984611
:10220000174641F4806101602068016841F48071E3
:10221000016000964FF0011B0022594620460A9BA0
:1022200000F0E3F84FF4007A40B120680068C00580
:1022300001D5C4F840A00320BDE8F88F216809F05B
:10224000FE0008613346284920460A9A00F011F939
:10225000F0BB2068416980690090324620460A99A7
:1022600000F09EF940B1206C04283AD12068016842
:1022700041F40071016034E0FDB2B8F1010F09D002
:102280002168380A0861324620460A9900F088F928
:102290000028E8D120680561324620460A9900F0FE
:1022A0007FF90028DFD12068016841F48071016066
:1022B00000960022594620460A9B00F096F8002816
:1022C000B3D1216809F0FF0040F00100086100E08F
:1022D00007E03346044920460A9A00F0CAF800286D
:1022E000AAD00120A8E70000020001002DE9F84370
:1022F000044600680D46DDE90897016898461646D1
:1023000041F4807101604B4600224FF001112046DC
:10231000009700F06AF848B120680068C00502D54F
:102320004FF4007020640320BDE8F883216805F0B5
:10233000FE0008613B464A461549204600F099F8E0
:1023400088B920684169806900903A46494620462C
:1023500000F026F948B1206C042804D120680168F7
:1023600041F4007101600120DEE7F5B2B8F1010F20
:1023700009D02168300A08613A464946204600F0F3
:102380000FF90028E7D1206805610020CCE70000A4
:102390000200010070B516460D4604461EE02046B8
:1023A000FFF70FFF08B1012070BD681C16D0FEF7C3
:1023B00091FC801BA84200D885B920684069C043C1
:1023C00040070BD5002044F8300F20216173A07323
:1023D000216941F0200121612073E4E72068406910
:1023E000C0434007DBD4002070BD2DE9F0471E46F6
:1023F00090460D460446C1F30747DDF8209026E0DD
:10240000701C24D0FEF766FCA0EB0900B04200D897
:10241000EEB92068012F16D0806925EA000000047B
:10242000000C12D00020404511D1002044F8300F9C
:1024300020216173A073216941F020012161207383
:102440000120BDE8F0874069E7E70120EBE720685D
:10245000012F0AD0806925EA00000004000C06D094
:1024600000204045CCD00020EBE74069F3E7012095
:10247000F7E72DE9F047984616460D4604464FF01B
:1024800000094FF0200AC1F3074723E020684069A4
:10249000C043400515D42068016841F40071016013
:1024A00021686FF480604861C4F8309084F83DA0E2
:1024B00084F83E90216C41F00401216484F83C9042
:1024C00020E0701C06D0FEF705FCA0EB0800B0422F
:1024D00003D816B1012F1ED020E02068012F14D0A0
:1024E000806925EA00000004000C17D044F8309FF2
:1024F00084F80DA084F80E90216941F0200121613B
:1025000084F80C900120BDE8F087406925EA0000BE
:102510000004000CEAD12068406901E0206880696D
:1025200025EA00000004000CB0D1ECE72DE9F041F1
:1025300016460D46044600274FF0200829E0406962
:10254000C043C0060DD454F8301B6FF01000486132
:1025500044F80D7B04F81D89A777206A206227774D
:1025600014E0FEF7B7FB801BA84200D88DB92068A5
:102570004069C04340060CD544F8307F84F80D8094
:10258000A773206940F02000206127730120BDE877
:10259000F08120684169C9434906D0D40020F6E79C
:1025A00070B516460D4604461EE02046FFF709FEAC
:1025B00008B1012070BD681C16D0FEF78BFB801B94
:1025C000A84200D885B920684069C04300060BD5F1
:1025D000002044F8300F20216173A073216941F07D
:1025E000200121612073E4E720684069C0430006B0
:1025F000DBD4002070BD00007CB52A4C207808B1E7
:1026000001207CBD2848017809B10021017069468C
:1026100001A800F033FF254E012508B3FEF75AFB51
:102620003060A06898B3BDF80010E0680844B0F5C9
:10263000804F10D8FEF73CFAE1686068BDF80020D2
:1026400008440199FEF726F8FEF7E6F9BDF80010F8
:10265000E0680844E060BDF800100198FDF77BFDDC
:10266000A06848B1FEF736FB3168401AB0F5FA6F42
:1026700002D90F4805702570FEF72CFB3168401A0F
:1026800042F21071884200D9257020787CBDFFE7A6
:10269000BDF800000028DED0019800783128DAD19A
:1026A000A560D8E71C0000200400002008000020DE
:1026B000000000200449486000208860C86008705D
:1026C00002490870FDF714BF1C0000200000002024
:1026D0002DE9F04786B0002441480094019402940B
:1026E0000394816941F010018161816901F0100159
:1026F0000491816941F020018161816901F020012B
:102700000491816941F004018161816901F0040152
:102710000491816941F0080181618069DFF8C4900A
:1027200000F00800049001221E214846FEF7CDFA71
:10273000DFF8B4A0002203215046FEF7C6FA4FF49A
:102740008068012241465046FEF7BFFA274E4FF4FB
:102750000050CDE90006694602942548FEF7CAF903
:1027600001250095CDE9016469464846FEF7C2F9A6
:102770000E200227CDE90005CDE90247694648460B
:10278000FEF7B8F910200326CDE90005CDE9024691
:1027900069464846FEF7AEF903970096CDE9015425
:1027A00069465046FEF7A6F9CDF800800396CDE9BC
:1027B000015469465046FEF79DF900221146062055
:1027C000FEF7ACFD0620FEF79BFD002211462820F7
:1027D000FEF7A4FD2820FEF793FD06B0BDE8F087C4
:1027E0000010024000080140000C014000001110E0
:1027F000001001400D4810B50B4901600C494160C3
:1028000000214FF480428160C0E90312416181617F
:10281000C1610162FEF764FA002803D0BDE81040F0
:10282000FDF7ACBE10BD0000005400403C0000208D
:10283000A0860100104810B50E4901604FF4827166
:10284000416000218160C1604FF400720161C0E904
:1028500005120822C0E90721416281620A21C16292
:10286000FFF76EF8002803D0BDE81040FDF786BEE4
:1028700010BD000000300140900000200C4810B551
:102880000A4901604FF4E1314160002181600C226E
:10289000C160C0E904128161C161FFF7CDFB00286E
:1028A00003D0BDE81040FDF769BE10BD00380140FF
:1028B00078030020FEE7FEE738B50020009016A060
:1028C00000F0F4FD00244FF4803505EB043000F0F7
:1028D000B5FB641C042CF8D3684600F06BFD11486E
:1028E0000078B8B10098A8B100F0F2FD0E4C1021AC
:1028F0002068FDF7A5FD009800F0D0FC206800F0EE
:1029000039FD18B100F0B0FD08A000E00AA000F009
:10291000CDFD38BD0CA0FAE74F54415F53544152EE
:10292000540D0A00000000203000002055504441A2
:1029300054455F4F4B0D0A00494E56414C49445F88
:1029400046570D0A000000005550444154455F466B
:1029500041494C0D0A0000007CB500200090ADF804
:102960000400FEF7B7F90446FDF7C2FD15A000F01C
:102970009DFD41F2883513E001A9684600F07EFD17
:1029800058B1BDF8041029B100980278312A0ED050
:10299000322A12D00098FDF7DEFB0A20FDF7D6FFA1
:1029A000FEF798F9001BA842E6D30FA006E014A09A
:1029B00000F07CFDFFF780FF7CBD16A000F076FDE7
:1029C0007CBD00004F54415F4D4F44453A0D0A20F5
:1029D00020313D554152540D0A2020323DE4BF9D27
:1029E000E795990D0A0000004F54415F53454C454F
:1029F00043545F54494D454F55540D0A00000000A3
:102A0000E8BF9BE585A5554152545F4F54410D0ADF
:102A100000000000E6A8A1E5BC8F32E69A82E69CA1
:102A2000AAE5AE9EE78EB00D0A00000070470000D8
:102A300010B502464FF6FF70064C07E012F8013B56
:102A40004340DBB234F8133083EA1020491E89B2C8
:102A5000F4D210BDE8350008002100F8DA1B018728
:102A600041878187C1877047F0B5044610F8016B34
:102A7000002505220123072E7AD2DFE806F0040B99
:102A800026364E697A00A4F812312954552900D10E
:102A900023708AE0B4F81221561CA4F81261115474
:102AA000B4F81221022A52D36278552A02D1A278B0
:102AB000AA2A06D0A4F812312954552903D000209F
:102AC00054E0022052E0012050E0B4F81221531CDF
:102AD000A4F812311154B4F81201042865D3B4F8E3
:102AE0000300A4F81601032040E0B4F812315E1C84
:102AF000A4F812611954B4F81201062855D3B4F899
:102B00000500A4F81801B0F5817F4DD800F10C0143
:102B1000A4F81411D0B1042028E0B4F812315D1CDF
:102B2000A4F812511954B4F81801B4F81211801D08
:102B300081423AD3002005E02118401CCB7981F86E
:102B40001A3180B2B4F818118142F5D822702CE005
:102B5000B4F81221531CA4F812311154B4F818011E
:102B6000B4F812110A3081421FD3062020701CE0F5
:102B70001AE0B4F81221531CA4F812311154B4F81D
:102B80001211B4F8140181420FD3611E0844068863
:102B9000B4F81801801D81B2E01CFFF749FF86429E
:102BA00002D125700120F0BD25700020F0BD00226B
:102BB00040F08000114600F001B8000030B5C5B00B
:102BC00055238DF80030AA238DF801308DF80200CE
:102BD000000A8DF803008DF80420100A8DF8050016
:102BE00006246D46002005E00B5C2B55641C401C40
:102BF000A4B280B29042F7D3002108462855641C45
:102C0000491C89B2A4B20429F8D3921D91B2A81C20
:102C1000FFF70EFF2855641CA1B2000A6854491C36
:102C20008AB2642369460248FFF779FA45B030BD9D
:102C300078030020002240F0FF001146FFF7BEBFDE
:102C40000148FEF70DBE00009000002010B5406A5C
:102C50000021C187C186FEF701FE10BDF8B51546FB
:102C60000E460B46009204460122022100F010F8A5
:102C700040B93346002280212046009500F008F834
:102C8000002804D0606D40F0200060650320F8BD8E
:102C90002DE9F8431E46914688460446089DFEF7F6
:102CA00019F8401B351AFEF715F807462548006845
:102CB000C0F3CB30684338E0701C37D0FEF70AF819
:102CC000C01BA84203D215B1009860B32CE0206865
:102CD000416821F0E00141606068B0F5827F0BD16E
:102CE000A068B0F5004F02D0B0F5806F04D1206825
:102CF000016821F040010160A06AB0F5005F09D1D0
:102D00002068016821F4005101602068016841F4E5
:102D100000510160012084F85100002084F8500027
:102D20000320BDE8F8830025401E009020688168DC
:102D300038EA010004D000204845BDD10020F0E76A
:102D40000120F9E7180000207047FEF781BA30B57E
:102D50008FB028216846FDF7FEF914210AA8FDF777
:102D6000FAF90120010400248DE8130004904FF4C7
:102D7000E010CDE90810022507956846FEF7E2FB52
:102D800008B172B6FEE70F20CDE90A054FF4806066
:102D9000CDE90C4002210AA80E94FEF7F1FA0028B2
:102DA00001D072B6FEE70FB030BD704710B5406A73
:102DB0000021C185C184FEF7E7FF10BD01680C3119
:102DC00051E8002F22F4907241E80023002BF5D146
:102DD0000168143151E8002F22F0010241E800237C
:102DE000002BF5D1016B012909D101680C3151E8A3
:102DF000002F22F0100241E80023002BF5D1202102
:102E000080F8421000210163704708B590F8421025
:102E1000222901D0022008BD81684FF480539942D5
:102E200001D1026922B1826A99421BD049B10AE0FC
:102E30000268816A5268C2F308020A80816A891CAA
:102E400008E0016971B10168496801F07F01117002
:102E5000816A491C8162C18D491E0904090CC18522
:102E600003D01BE001684968F1E70168CA6822F0F5
:102E70002002CA600168CA6822F48072CA600168D0
:102E80004A6922F001024A61202180F842100021A3
:102E90004163026B012A03D0FFF740F9002008BD0F
:102EA000016301680C3151E8002F22F0100241E863
:102EB0000023002BF5D101680A68D20602D50A6802
:102EC00049680091818DFEF733FFE7E770B504464E
:102ED00000680169E26821F4405111430161A16871
:102EE00020690143606901432068C26841F20C63B4
:102EF0009A430A43C26020684169A26921F4407183
:102F0000114341611E492068884202D1FEF7E4FA6C
:102F100001E0FEF7D1FA00EBC00101EB001160689F
:102F200064228000B1FBF0F3B3FBF2F36FF01806FC
:102F30007343B1FBF0F5B1FBF0F605EB83053223EB
:102F400003EB0515B5FBF2F5B6FBF2F605F0F0055F
:102F500005EB0615B1FBF0F6B1FBF0F0B0FBF2F0BB
:102F60006FF01801484306EB800003EB0010B0FB44
:102F7000F2F0216800F00F002844886070BD000066
:102F80000038014081628285C2850021416422218E
:102F900080F84210016921B10168CA6842F4807268
:102FA000CA6001684A6942F001024A610068C1686A
:102FB00041F02001C160002070472DE9F8431F4611
:102FC00090460D460446089E23E0701C21D0FDF774
:102FD00081FEC01BB0421AD8CEB12068C168490733
:102FE00017D5802D15D0402D13D00168C94309078E
:102FF0000FD401680025406800902046FFF7DEFEF0
:103000000820606484F840500120BDE8F883032064
:10301000FBE72068006835EA000004D00020404546
:10302000D3D00020F1E70120F9E700000148FEF7C6
:10303000CDBE000078030020FEE7000070B520F050
:103040007F4400F05FF800F095F80E4D002210214B
:103050002846FDF73AFE202000F044F8200C00F04E
:1030600041F8C4F3072000F03DF8E0B200F03AF870
:10307000012210212846FDF728FEBDE8704000F02F
:1030800041B80000000801402DE9F04115460E4608
:10309000044600F037F8124F002210213846FDF7A1
:1030A00014FE032000F01EF8C4F3074000F01AF8E5
:1030B000C4F3072000F016F8E0B200F013F8002483
:1030C00005E0FF2000F00EF83055641CA4B2AC42BD
:1030D000F7D33846BDE8F04101221021FDF7F5BDD8
:1030E0000008014001B582B064200090012301AACC
:1030F00002A90348FEF7EAFC9DF804000EBD00009B
:103100009000002010B50A4C002210212046FDF747
:10311000DCFD0520FFF7E6FFFF20FFF7E3FFC00718
:10312000FAD120460122BDE810401021FDF7CDBDA7
:10313000000801402DE9F0410646C0B2C0F5807498
:103140000F461546A24200D814464FF48078224616
:103150003946304600F022F8A54208D0281B274403
:10316000264485B24446A542F1D82C46EFE7BDE897
:10317000F081000010B5084C002210212046FDF718
:10318000A4FD0620FFF7AEFF20460122BDE8104057
:103190001021FDF79ABD0000000801402DE9F04123
:1031A00004464FF4807015460E46824200D905460B
:1031B000FFF7A8FFFFF7DEFF124F0022102138466D
:1031C000FDF783FD0220FFF78DFFC4F30740FFF7F3
:1031D00089FFC4F30720FFF785FFE0B2FFF782FF06
:1031E000002404E0305DFFF77DFF641CA4B2AC4214
:1031F000F8D3012210213846FDF767FDBDE8F04104
:10320000FFF780BF00080140014A024900F034B8CE
:10321000E93200083800002000280DDB00F01F0212
:10322000012191404009800000F1E020C0F88011A8
:10323000BFF34F8FBFF36F8F70470907090E002848
:1032400004DB00F1E02080F80014704700F00F006C
:1032500000F1E02080F8141D704702E008C8121F3A
:1032600008C1002AFAD170477047002001E001C16F
:10327000121F002AFBD170472DE9F04116460F4678
:103280000446002503E03946B047641C6D1C2078D5
:103290000028F8D12846BDE8F08100002DE9F04172
:1032A000C0B00546FDF704FC00244FF480780D4EB5
:1032B00011E0281BFF2800D9404687B23A466946EC
:1032C00004F58030FFF7E0FE70683A462044694616
:1032D000FDF7E0F93C44AC42EBD3FDF79DFB40B079
:1032E000BDE8F0812C00002013B56423012269465B
:1032F0000248FEF714FF00981CBD00007803002070
:10330000034881680348814200D1034870470000A8
:103310002C0000200080000800C0000870B50446A2
:1033200000880D46032807D004280AD0052818D0A5
:10333000FFF780FC002070BD201D00F08DF8286094
:103340000BE0201D00F088F8618800F58030091F2F
:103350008AB204F10801FFF7EDFE2088FFF727FC91
:10336000E8E7034A01211170FFF721FC012070BD3D
:10337000000000200068A0F10050B0F5A04F01D877
:103380000120704700207047FDF76AFFFFF7DFFC60
:10339000FFF79EF9FFF772FAFFF72CFAFFF74AFAE8
:1033A000FCF78AFFFCF77AFFFCF7D8FFFCF7C0FFB9
:1033B000FEE700002DE9F043ADF5097D00268146CA
:1033C0008796ADF820626846FFF746FBDFF87C8001
:1033D0001F4D404698F8001001B1067088A987A8D3
:1033E00000F04CF820B3FDF775FC286000240DF5C3
:1033F0008B7715E08798015D6846FFF735FB68B16C
:1034000049463846FFF78AFF40B1BDF82012879839
:10341000FCF7A1FE0DF5097DBDE8F083641CA4B2A4
:10342000BDF820028442E5D381B28798FCF793FE71
:10343000084800780028EDD1FDF74CFC2968401AB7
:1034400042F210718842C4D9E4E700000400002071
:10345000080000200000002082780188C07862F314
:103460001F4141EA0060704710B5034C6068FDF7EA
:1034700033F86068A06010BD2C0000200A4B10B526
:10348000B3F8042272B11C681A1D944201D102F5EE
:1034900080720260B3F8040208800020A3F80402DE
:1034A000012010BD002010BD70010020002201E0AD
:1034B000521C92B2835C002BFAD1002A04D0014640
:1034C00064230248FEF72BBE7047000078030020FB
:1034D0001CB50BA1D1E90021CDE900218DF8040034
:1034E000010A8DF80510010C8DF80610000E8DF8FC
:1034F0000700082269460020FFF71CFE1CBD0000E3
:1035000000000100000000002DE9F047FDF7E2FB9C
:103510000546DFF880804FF40057DFF87C9041F2D9
:10352000883A30E0012146464046FDF7C9FB0128B4
:1035300011D1FDF7CFFB044607E0FDF7CBFB001BE5
:10354000322802D90520BDE8F08701213046FDF779
:10355000B7FB0128F1D039464E464846FDF7B0FB8F
:10356000012810D1FDF7B6FB044606E0FDF7B2FBDB
:10357000001B322801D90420E5E739463046FDF723
:103580009FFB0128F2D0FDF7A5FB411B5145C9D394
:103590000220D8E7000801400010014001020203A8
:1035A0000405060708090A0B0C0D0E0F1010000089
:1035B00000000000000001020304060708090000E3
:1035C00000000102030400000000000001000000F0
:1035D00000000000000000000000000001000000EA
:1035E00000000000000000000000C1C081C14001D7
:1035F00001C3C003800241C201C6C006800741C7A3
:103600000005C1C581C4400401CCC00C800D41CD72
:10361000000FC1CF81CE400E000AC1CA81CB400B42
:1036200001C9C009800841C801D8C018801941D912
:10363000001BC1DB81DA401A001EC1DE81DF401FA2
:1036400001DDC01D801C41DC0014C1D481D54015B2
:1036500001D7C017801641D601D2C012801341D3C2
:103660000011C1D181D0401001F0C030803141F152
:103670000033C1F381F240320036C1F681F74037A2
:1036800001F5C035803441F4003CC1FC81FD403D72
:1036900001FFC03F803E41FE01FAC03A803B41FB42
:1036A0000039C1F981F840380028C1E881E9402992
:1036B00001EBC02B802A41EA01EEC02E802F41EFA2
:1036C000002DC1ED81EC402C01E4C024802541E5B2
:1036D0000027C1E781E640260022C1E281E34023C2
:1036E00001E1C021802041E001A0C060806141A1D2
:1036F0000063C1A381A240620066C1A681A74067A2
:1037000001A5C065806441A4006CC1AC81AD406D71
:1037100001AFC06F806E41AE01AAC06A806B41AB41
:103720000069C1A981A840680078C1B881B9407911
:1037300001BBC07B807A41BA01BEC07E807F41BFA1
:10374000007DC1BD81BC407C01B4C074807541B5B1
:103750000077C1B781B640760072C1B281B34073C1
:1037600001B1C071807041B00050C1908191405151
:103770000193C053805241920196C05680574197A1
:103780000055C19581944054019CC05C805D419D71
:10379000005FC19F819E405E005AC19A819B405B41
:1037A0000199C059805841980188C0488049418991
:1037B000004BC18B818A404A004EC18E818F404FA1
:1037C000018DC04D804C418C0044C18481854045B1
:1037D0000187C047804641860182C04280434183C1
:1037E0000041C1818180404008380008000000206D
:1037F0003C0000005A320008443800083C00002019
:10380000A40700006A320008000000000000000069
:103810000000000001000000100000000000000097
:1038200000127A000000000000000000000000000C
:10383000000000000200000000C000080080000836
:043840000000000084
:04000005080000ED02
:00000001FF
