:020000040800F2
:104000008806002005410008AB5200083352000822
:10401000A9520008C54100084D56000800000000E4
:10402000000000000000000000000000D552000861
:10403000C741000800000000AD520008D752000838
:104040001F4100081F4100081F4100081F410008D0
:104050001F4100081F4100081F4100081F410008C0
:104060001F4100081F4100081F4100081F410008B0
:104070001F4100081F4100081F4100081F410008A0
:104080001F4100081F4100081F4100081F41000890
:104090001F4100081F4100081F4100081F41000880
:1040A0001F4100081F4100081F4100081F41000870
:1040B0001F4100081F4100081F4100081F41000860
:1040C0001F4100081F4100081F4100081F41000850
:1040D0001F4100081F410008415600081F41000809
:1040E0001F4100081F4100081F410008DFF810D0E1
:1040F00000F042F8004800471D580008AFF3008068
:10410000880600200648804706480047FEE7FEE78D
:10411000FEE7FEE7FEE7FEE7FEE7FEE7FEE7FEE777
:1041200039530008ED400008D2B201E000F8012B3D
:10413000491EFBD270470022F6E710B513460A4627
:1041400004461946FFF7F0FF204610BD30B50B4678
:10415000014600202022012409E021FA02F59D42B7
:1041600005D303FA02F5491B04FA02F52844151E8B
:10417000A2F10102F1DC30BD064C074D06E0E0681B
:1041800040F0010394E8070098471034AC42F6D39E
:10419000FFF7B0FF80580008A058000882B0074819
:1041A00000680168416801910168406801904FF41E
:1041B00000720349014802B000F0DCBD1C00002081
:1041C00088000020FEE7704772B6FEE7064900202F
:1041D000C8610648016941F004010161016941F0CB
:1041E000400101617047000068000020002002408B
:1041F000064A0021D16106490A6942F002020A61B9
:104200004861086940F0400008617047680000207C
:104210000020024000201449CA68D306134A04D57E
:10422000D06940F00200D0611020CB685B0705D553
:10423000D36943F00103D36140F00400CB69DB078D
:1042400007D0D36943F00403D361CA6922F00102A5
:10425000CA61A0F58072013A01D0C8607047C86990
:1042600020F00100C8617047002002406800002073
:1042700070B5044600F012FA0546114E09E0601CC4
:1042800007D024B100F00AFA401BA04201D9032054
:1042900070BDF068C007F2D1F068800601D520201B
:1042A000F060F068C00605D4F069C00702D1F0687C
:1042B000400703D5FFF7AEFF012070BD002070BDA1
:1042C0000020024010B590F821100022022905D0EC
:1042D0000421816380F82020012010BD01680B6853
:1042E00023F00E030B6001680B6823F001030B60E1
:1042F00090F84030C46B012101FA03F3636080F849
:10430000211080F82020104610BD000010B50024B8
:1043100090F82110022903D00421816301243DE09B
:1043200001680A6822F00E020A6001680A6822F039
:1043300001020A601A4A0168914201D1012121E07B
:10434000174A1432914201D110211BE0144A28323D
:10435000914201D1891515E0114A3C32914201D1B7
:1043600089140FE00E4A5032914202D14FF480314D
:1043700008E00B4A6432914202D14FF4801101E00F
:104380004FF08071064A083A5160012180F82110EF
:10439000002180F82010416B01B18847204610BDF4
:1043A0000800024070B5044600F078F90546601C2C
:1043B00002D004480078044400F070F9401BA04289
:1043C000FAD370BD000000202DE9F04705460F46E6
:1043D0004FF0010ADFF8908098F8180001280DD0FE
:1043E000012088F818002868204E4CF25039022825
:1043F00007D04846FFF73CFF98B12FE00220BDE808
:10440000F0874846FFF734FFF8B90120FFF7DEFEDA
:104410004846FFF72DFF8246306920F004003061E6
:104420001CE04FF0FF303860AC6811E02046FFF729
:10443000DFFE4846FFF71CFF8246306920F002008D
:1044400030615FEA0A0001D03C6007E004F5806457
:10445000D5E9020100EB8120A042E7D8002088F8CE
:1044600018005046CBE70000680000200020024002
:104470000348016941F0800101610020704700009C
:1044800000200240002006490A69120607D5054AA5
:104490004A60054A4A600969090600D5012070474B
:1044A0000020024023016745AB89EFCD2DE9F84F8D
:1044B00000240023DFF8C4914FF00F08A9F1040B8A
:1044C00009F1040AABF1040ED1E00127A7403A40FC
:1044D000BA4275D1DFF8A8C14D68A5EB0C06654559
:1044E0002BD00DDC032D34D005DC35B3012D19D0D4
:1044F000022D2FD11BE0112D16D0122D2AD119E03B
:10450000B6F5881F19D006DCB6F5803F15D0B6F594
:10451000801F1FD111E0B6F5001F0ED0B6F5041FA5
:1045200018D10AE0CB6815E0CB681B1D12E0CB6800
:1045300008330FE0CB680C330CE08B6823B1012B00
:1045400004D00823476105E0042303E00823076142
:1045500000E00023FF2A01D8054601E000F1040530
:1045600002D84FEA840603E0A4F108064FEA860663
:104570002F6808FA06FC27EA0C0703FA06F647EA52
:1045800006072F604D68ED0070D53E4DAE6946F0D0
:104590000106AE61AD6905F0010500953A4D24F0C4
:1045A00003067719BE68A5072D0F08FA05FC26EA51
:1045B0000C06DFF8D8C0604503D14FF0000C17E0BF
:1045C00054E0DFF8CCC0604502D14FF0010C0FE0A1
:1045D000DFF8C0C0604502D14FF0020C08E0DFF800
:1045E000B8C0604502D14FF0030C01E04FF0040C5D
:1045F0000CFA05FC4CEA060CC7F808C04D68ED0241
:1046000005D5D9F800501543C9F8005004E0D9F891
:1046100000509543C9F800504D68AD0205D5DAF851
:1046200000501543CAF8005004E0DAF800509543F2
:10463000CAF800504D68AD0305D5DBF800501543AE
:10464000CBF8005004E0DBF800509543CBF8005065
:104650004D68ED0305D5DEF800501543CEF8005047
:1046600004E0DEF800509543CEF80050641C0A6860
:1046700032FA04F57FF429AFBDE8F88F0804014051
:10468000000011100010024000000140000801402D
:10469000000C0140001001400014014001488068F6
:1046A0007047000000000020024881680278114431
:1046B000816070470000002010B50748016841F094
:1046C00010010160032000F077F80F2000F006F8D9
:1046D00000F026F8002010BD0020024070B504460E
:1046E0000D4D4FF47A712878B1FBF0F00B49096851
:1046F000B1FBF0F000F02AFB08B1012070BD102CD6
:1047000007D200222146501E00F036F86C600020CF
:1047100070BD012070BD0000000000200C000020D2
:1047200008B50C48816941F001018161816901F09E
:1047300001010091C16941F08051C161C06900F07F
:10474000805000900449486820F0E06040F000701C
:10475000486008BD0010024000000140002809DB4D
:1047600000F01F02012191404009800000F1E0208B
:10477000C0F8001170470000F0B40D460D4B1B68E7
:10478000C3F30223C3F10704042C00D90424191D28
:10479000072901D2002300E0DB1E012606FA04F1FE
:1047A000491E294099409E40761E16403143F0BC78
:1047B00000F05EBF0CED00E000F00701054A106854
:1047C0004FF6FF03184040EA0120034908431060F8
:1047D000704700000CED00E00000FA052DE9F047FD
:1047E00004460D46002C17D0DFF83081D8F80000C1
:1047F00000F00700A84211D2D8F8000020F007000E
:104800002843C8F80000D8F8000000F00700A842CC
:1048100004D00120BDE8F0870120FBE72068404E6E
:10482000810712D5400703D5706840F4E0607060DE
:104830002078000703D5706840F46050706070689D
:10484000A16820F0F000084370602078C0072CD0E9
:104850006068012806D0022809D0316889070BD486
:104860000120D7E73168890306D40120D2E73168F7
:10487000890101D40120CDE7716821F003010143D2
:104880007160FFF70BFF074641F2883906E0FFF73A
:1048900005FFC01B484501D90320BBE7706861686C
:1048A00000F00C00B0EB810FF1D1D8F8000000F05F
:1048B0000700A8420ED9D8F8000020F007002843CE
:1048C000C8F80000D8F8000000F00700A84201D0A6
:1048D00001209FE72078400705D57068E16820F443
:1048E000E060084370602078000706D57068216991
:1048F00020F4605040EAC100706000F03FF8716839
:10490000084AC1F30311515CC840074908600748D1
:104910000068FFF7E3FE00207CE700000020024073
:1049200000100240665800080C000020040000201F
:1049300001480068704700000C00002000B5FFF738
:10494000F7FF04494968044AC1F30221515CC84099
:1049500000BD0000001002407658000800B5FFF7C7
:10496000E7FF04494968044AC1F3C221515CC840C9
:1049700000BD000000100240765800080E4B596838
:104980000E4801F00C02042A11D0082A0FD10C485D
:10499000C1F38342805CC9030AD55968084AC1F350
:1049A0004041921E515C054A5043B0FBF1F0704704
:1049B00004494843704700000010024000127A008A
:1049C0005658000800093D002DE9F84F0446002C18
:1049D0000ED02078D94DC0075ED06868C0F3810042
:1049E00001280BD06868C0F38100022803D00CE0D6
:1049F0000120BDE8F88F6868C00306D528688003E9
:104A00004AD56068A8BB0120F3E76068B0F5803F35
:104A100011D0A8B1B0F5A02F1BD0286820F48030A9
:104A20002860286820F480202860606830B3FFF791
:104A300035FE06461EE0286840F480302860F4E722
:104A4000286820F480302860286820F480202860BE
:104A5000EBE7286840F480202860286840F4803024
:104A60002860E2E7FFF71AFE801B642802D90320C2
:104A7000BFE711E028688003F4D50DE0FFF70EFED4
:104A8000064606E0FFF70AFE801B642801D90320D2
:104A9000AFE728688003F5D42078DFF8A482800788
:104AA0004FF0010A4FF0000945D5686810F00C0F6F
:104AB00007D06868C0F38100022812D16868C0037B
:104AC0000FD42868800704D52069012801D001206F
:104AD0008FE72868616920F0F80040EAC10028608B
:104AE00029E02069B8B1C8F800A0FFF7D7FD064655
:104AF00006E0FFF7D3FD801B022801D9032078E7E9
:104B000028688007F5D52868616920F0F80040EA38
:104B1000C10028600FE0C8F80090FFF7BFFD06460F
:104B200006E0FFF7BBFD801B022801D9032060E7E8
:104B300028688007F5D42078000726D58148A16928
:104B400099B1C0F800A0FFF7A9FD064606E0FFF7FF
:104B5000A5FD801B022801D903204AE7686A800767
:104B6000F5D5012000F0A4FB0FE0C0F80090FFF79E
:104B700095FD064606E0FFF791FD801B022801D94E
:104B8000032036E7686A8007F5D42078400773D59C
:104B90000026E869C00008D4E86940F08050E86168
:104BA000E86900F0805000900126DFF89CB1DBF846
:104BB0000000C00514D4DBF8000040F48070CBF88E
:104BC0000000FFF76BFD074606E0FFF767FDC01B1F
:104BD000642801D903200CE7DBF80000C005F4D5F8
:104BE000E068012812D0B0B105281DD0286A20F055
:104BF00001002862286A20F004002862E06841F27F
:104C0000883B28B3FFF74AFD07461DE0286A40F0BD
:104C100001002862F2E7286A20F001002862286A71
:104C200020F004002862E9E7286A40F004002862C6
:104C3000286A40F001002862E0E7FFF72FFDC01B63
:104C4000584501D90320D4E6286A8007F5D50DE040
:104C5000FFF724FD074606E0FFF720FDC01B58457F
:104C600001D90320C5E6286A8007F5D4012E03D1B7
:104C7000E86920F08050E861E069A0B36968C1F399
:104C80008101022946D0022805D0C8F86090FFF7BC
:104C900005FD04463AE0C8F86090FFF7FFFC0646C1
:104CA00006E0FFF7FBFC801B022801D90320A0E6E9
:104CB00028688001F5D4206AB0F5803F05D1686886
:104CC000A16820F4003008436860D4E90801084373
:104CD000696821F4741108436860C8F860A0FFF7A0
:104CE000DDFC044607E026E0FFF7D8FC001B0228A5
:104CF00001D903207DE628688001F5D51BE0FFF788
:104D0000CDFC001B022801D9032072E6286880012F
:104D1000F5D410E001280CD06868226A00F48031D4
:104D2000914204D1616A00F47010884203D00120DE
:104D30005FE601205DE600205BE600000010024017
:104D400000004242800442420070004010B5401E04
:104D5000B0F1807F01D3012010BD4FF0E0246061ED
:104D60000F21601700F084FC0020A0610720206163
:104D7000002010BD18B5034693F84200202801D04A
:104D8000022018BD51B14AB10120186300205863B8
:104D9000184600F0CFFB014611B105E0012018BD17
:104DA000186B012802D00121084618BD1868026856
:104DB0004068009018680C3050E8002F42F0100254
:104DC00040E80024002CF5D1EEE7000070B586B075
:104DD00000681F4A904239D11E4C218060880844E7
:104DE0006080FFF74FFB0025002600201A4A6388E9
:104DF0000FE061680144895CFF2908D001256168E2
:104E000008448118C1F30901401A861803E0401CC8
:104E100080B29842EDD355B1002002900121039158
:104E200004960591019001A902A8FFF7CDFAFFF7BA
:104E30001FFB21880948FFF77EF906B04FF4007286
:104E4000BDE8704005490648FFF794BF06B070BD45
:104E500000440040100000200040000888000020AE
:104E60001C00002070470000F8B504462268106856
:104E7000D168536900F00F06002E08D1850606D5CB
:104E80008D0604D52046BDE8F84000F092BA002512
:104E9000002E66D003F0010601F49077374360D00E
:104EA000C20705D0CA0503D5626C42F001026264F4
:104EB000420705D5DA0703D0626C42F00202626451
:104EC000820705D5DA0703D0626C42F004026264FF
:104ED000020707D501F02002324303D0626C42F092
:104EE00008026264626C002A31D0800604D588060C
:104EF00002D5204600F05DFA20684069C0F38010BA
:104F0000616C090700D438B3204600F01EFA20680F
:104F1000406940061CD52068143050E8001F21F07D
:104F2000400140E80012002AF5D1E06B60B1594918
:104F30004163E06BFFF7EAF9002808D0E06B416BB2
:104F400001B0BDE8F04008472046FFF78BFFF8BDF1
:104F50002046FFF787FFF8BD2046FFF783FF656413
:104F6000F8BD236B012B7DD1C3067BD5CB067ED547
:104F700010685068009050694FF0200340064FF0D1
:104F8000020643D5E16B0868406880B20028E7D08C
:104F9000A28D8242E4D9E085886920282DD020683E
:104FA0000C3050E8001F21F4807140E80012002A04
:104FB000F5D12068143050E8001F21F0010140E8CD
:104FC0000012002AF5D12068143050E8001F21F0AB
:104FD000400140E80012002AF5D184F842302563F0
:104FE00020680C3050E8001F21F0100140E800124A
:104FF000002AF5D1E06BFFF765F96663A08DE18DBE
:10500000401A81B22046FFF7E1FEF8BDA08DE18D88
:10501000401A81B2E08D0028F7D00029F5D0206831
:105020000C3050E8002F22F4907240E80027002F47
:10503000F5D12068143050E8002F22F0010240E83A
:105040000027002FF5D184F84230256320680C300A
:1050500050E8002F22F0100240E80023002BF5D189
:10506000666300E003E02046FFF7B0FEF8BD0206ED
:1050700006D50A0604D52046BDE8F84000F076BA09
:105080004006F3D54806F1D52046BDE8F84000F0CB
:1050900083B900003B53000870B50446002C04D0CF
:1050A00094F84100002510B106E0012070BD84F89D
:1050B0004050204600F024F8242084F84100206865
:1050C000C16821F40051C160204600F0D7F9206882
:1050D000016921F4904101612068416921F02A01B0
:1050E00041612068C16841F40051C16065642020BD
:1050F00084F8410084F842006563002070BD000020
:1051000030B585B00024019402940394049400689F
:10511000184988422BD11848C16941F40031C16156
:10512000C16901F400310091816941F0040181619C
:10513000806900F004000090042001900220029099
:10514000032004900D4D01A92846FFF7AFF908216F
:1051500001910294039401A92846FFF7A7F90022C0
:1051600005212620FFF708FB2620FFF7F7FA05B0F8
:1051700030BD000000440040001002400008014023
:1051800070472DE9F84304460E4615461F4694F82D
:105190004100202802D00220BDE8F8837EB175B11D
:1051A00000206064212084F84100FFF777FA8146EF
:1051B000A584E584A068B0F5805F02D003E00120FB
:1051C000EAE7206920B1354600264FF0200815E0B7
:1051D0000025FAE74B46002280212046009700F088
:1051E000F4F918B184F841800320D5E7ADB1216806
:1051F00015F8010B4860E08C401EE084E08C00282C
:10520000E8D14B46002240212046009700F0DDF90E
:1052100050B184F841800320BEE736F8020B2168C4
:10522000C0F308004860E6E784F841800020B3E757
:105230007047FEE708B50D48816941F010018161B2
:10524000816901F010010091816941F020018161C3
:10525000816901F020010091816941F004018161BF
:10526000806900F00400009008BD000000100240BA
:1052700010B50C480A4901604FF4E131416000214A
:105280008160C16001610C2242618161C161FFF7EF
:1052900003FF002803D0BDE81040FEF795BF10BD06
:1052A000004400401C000020FEE7FEE770470000BD
:1052B00008B507494FF4FA520968B1FBF2F14143CE
:1052C000009100BF0098411E0091FAD208BD000075
:1052D0000C0000207047FFF7E7B930B58FB02821E8
:1052E00005A8FEF728FF14216846FEF724FF0121D8
:1052F00005910804069000240794099102250C9555
:105300000D904FF4E0100E9005A8FFF75DFB08B17B
:10531000FEF75AFF0F200090019502944FF4806031
:105320000390049402216846FFF758FA002801D040
:10533000FEF74AFF0FB030BD704710B5406A00213C
:10534000C185C184FFF78EFD10BD01680C3151E8A5
:10535000002F22F4907241E80023002BF5D1016860
:10536000143151E8002F22F0010241E80023002B04
:10537000F5D1016B012909D101680C3151E8002FE9
:1053800022F0100241E80023002BF5D1202180F803
:10539000421000210163704710B50168CA6822F00D
:1053A0004002CA60202180F84110FFF741FF002031
:1053B00010BD08B590F84210222901D0022008BD86
:1053C00082684FF480539A4201D1016921B1816A08
:1053D0009A421DD052B10BE0816A02685268C2F352
:1053E00008020A80816A891C816209E002697AB137
:1053F0000268526802F07F020A70816A491C816269
:10540000C18D491E0904090CC18505D0002008BDC5
:10541000026852680A70F0E70168CA6822F0200248
:10542000CA600168CA6822F48072CA6001684A6969
:1054300022F001024A61202180F8421000214163DC
:10544000026B012A03D0FFF79BFE002008BD016319
:1054500001680C3151E8002F22F0100241E80023CE
:10546000002BF5D101680A68D20602D50A6849689E
:105470000091818DFFF7AAFCE7E7000070B50446B4
:1054800020680169E26821F4405111430161A1687B
:1054900020690143606901432068C26841F20C63DE
:1054A0009A430A43C26020684169A26921F44071AD
:1054B000114341611E492068884202D1FFF74EFA2C
:1054C00001E0FFF73BFA00EBC00101EB001061685F
:1054D00064228900B0FBF1F3B3FBF2F36FF018061E
:1054E0007343B0FBF1F5B0FBF1F605EB8305322316
:1054F00003EB0515B5FBF2F5B6FBF2F605F0F0058A
:1055000005EB0615B0FBF1F6B0FBF1F0B0FBF2F0E5
:105510006FF01801484306EB800003EB0010B0FB6E
:10552000F2F0216800F00F002844886070BD000090
:105530000038014081628285C285002141642221B8
:1055400080F842100169002904D00168CA6842F459
:105550008072CA6001684A6942F001024A610068CB
:10556000C16841F02001C1600020704790F84110EF
:10557000212901D0022070478168B1F5805F01D1F7
:10558000016961B1016A4A1C0262026809785160CE
:10559000C18C491E0904090CC1840AD013E0016AB8
:1055A00002680988C1F308015160016A891C01621F
:1055B000EEE70168CA6822F08002CA600068C1682C
:1055C00041F04001C160002070472DE9F8430446D6
:1055D0000D4617469846089E25E0701C23D0FFF71D
:1055E0005DF8A0EB0800B0421BD8D6B12068C168B6
:1055F000490718D5802D16D0402D14D00168C94315
:10560000090710D4002521680968406800902046E9
:10561000FFF79BFE0820606484F840500120BDE83D
:10562000F8830320FBE72068006835EA000004D017
:105630000020B842D1D00020F1E70120F9E70000B6
:105640000148FFF711BC00001C000020FEE700002D
:105650000FB4054B10B503A9044A029800F028F8CE
:1056600010BC5DF814FB000005580008180000206D
:105670000907090E002804DB00F1E02080F800147F
:10568000704700F00F0000F1E02080F8141D704713
:1056900002E008C8121F08C1002AFAD170477047FB
:1056A000002001E001C1121F002AFBD17047000059
:1056B0002DE9FF4F89B09B460446002506E02528CA
:1056C0000BD05A460B999047641C6D1C207800281B
:1056D000F5D10DB02846BDE8F08F0027B84601226D
:1056E000474900E0074314F8013F203B02FA03F06A
:1056F0000842F7D120782E2819D114F8010F47F06D
:1057000004072A280ED06FF02F022078A0F1300174
:1057100009290CD808EB880102EB410100EB0108D4
:10572000641CF2E70A98641C50F8048B0A902078F5
:105730000028CED0642808D0692806D075281ED04D
:105740005A460B9990476D1C58E00A994FF00A0988
:1057500001C90A91002802DA40422D2102E03905F0
:1057600004D52B218DF82010012103E0F90704D086
:105770002021F7E78A4608AE0DE00021FAE70A99F2
:105780004FF00A0901C90A91F7E74946FEF7DEFC26
:10579000303106F8011D0028F7D1ADEB060000F10D
:1057A0002009780701D44FF00108C84502DDA8EBB5
:1057B000090000E000208046002706E008A85A46BD
:1057C000C05D0B9990476D1C7F1C5745F6DB04E0CC
:1057D00030205A460B9990476D1CB8F10001A8F192
:1057E0000108F5DC05E016F8010B5A460B999047C5
:1057F0006D1CB9F10001A9F10109F4DC641C65E735
:105800000928010013B56FF07F4301226946024861
:10581000FFF7B7FC00981CBD1C000020FEF74CFFF2
:10582000FFF75BFDFFF706FDFFF722FDFEF7B6FC75
:10583000054C41F2883505A02188FFF709FF28466D
:10584000FEF7B0FDF7E700001200002025640D0A06
:1058500000000000010202030405060708090A0B04
:105860000C0D0E0F101000000000000000000102DF
:1058700003040607080900000000010203040000F9
:10588000A0580008000000201C00000090560008EE
:10589000BC5800081C0000206C060000A056000840
:1058A00001000000100000000000000000127A005B
:0C58B000000000000000000000000000EC
:04000005080040EDC2
:00000001FF
