:020000040800F2
:10000000D0060020050100087F170008EF14000843
:100010007D170008C1020008B91C0008000000009C
:10002000000000000000000000000000A917000808
:10003000C3020008000000008117000845190008ED
:100040001F0100081F0100081F0100081F01000810
:100050001F0100081F0100081F0100081F01000800
:100060001F0100081F0100081F0100081F010008F0
:100070001F0100081F0100081F0100081F010008E0
:100080001F0100081F0100081F0100081F010008D0
:100090001F0100081F0100081F0100081F010008C0
:1000A0001F0100081F0100081F0100081F010008B0
:1000B0001F0100081F0100081F0100081F010008A0
:1000C0001F0100081F0100081F0100081F01000890
:1000D0001F0100081F010008AD1C00081F010008D7
:1000E000C50200081F0100081F010008DFF810D03A
:1000F00000F080F8004800478D210008AFF3008031
:10010000D00600200648804706480047FEE7FEE785
:10011000FEE7FEE7FEE7FEE7FEE7FEE7FEE7FEE7B7
:10012000A7190008ED000008202A04DB203A21FA74
:1001300002F00021704721FA02F3D040C2F1200200
:100140009140084319467047D2B201E000F8012BF4
:10015000491EFBD270470022F6E710B513460A4647
:1001600004461946FFF7F0FF204610BD30B505469E
:100170002A460B4612F8010B13F8014B08B1A042B6
:10018000F8D01CB1002802D06D1CF1E7284630BD24
:100190002DE9F05F0546002092469B4688460646BC
:1001A000814640241BE02846414647462246FFF749
:1001B000BBFF53465A46C01A914110D31146184608
:1001C000224600F029F82D1A67EB01084F46224617
:1001D0000120002100F020F817EB00094E41201EFD
:1001E000A4F10104DFDC484631462A464346BDE817
:1001F000F09F0000064C074D06E0E06840F0010368
:1002000094E8070098471034AC42F6D3FFF772FF2A
:10021000D0210008F0210008202A04DB203A00FA4F
:1002200002F1002070479140C2F1200320FA03F34D
:10023000194390407047000010B505A001F03EFD45
:100240000DA001F03BFD12490020487010BD0000D8
:100250000D0A3D3D3D3D3D3D3D3D3D3D20426F6FE5
:10026000746C6F61646572203D3D3D3D3D3D3D3D9B
:100270003D3D0D0A0000000073656E642027737415
:100280006172742720746F20626567696E0D0A00C1
:100290002000002009484078002807D0012807D016
:1002A000022807D0042807D101F0B4BA01F07EBAC1
:1002B00001F01ABB01F0D8BA7047000020000020FE
:1002C000FEE7704710B54FF4005000F0D5F9BDE8D7
:1002D00010404FF4805000F0CFB972B6FEE7000036
:1002E00006490020C8610648016941F00401016126
:1002F000016941F040010161704700007000002079
:1003000000200240064A0021D16106490A6942F0F4
:1003100002020A614861086940F0400008617047C4
:100320007000002000200240044B0022DA61044AE1
:10033000136943F0010313610180704770000020CE
:100340000020024000201449CA68D306134A04D58D
:10035000D06940F00200D0611020CB685B0705D562
:10036000D36943F00103D36140F00400CB69DB079C
:1003700007D0D36943F00403D361CA6922F00102B4
:10038000CA61A0F58072013A01D0C8607047C8699F
:1003900020F00100C861704700200240700000207A
:1003A00070B5044600F074FA0546114E09E0601C71
:1003B00007D024B100F06CFA401BA04201D9032001
:1003C00070BDF068C007F2D1F068800601D520202A
:1003D000F060F068C00605D4F069C00702D1F0688B
:1003E000400703D5FFF7AEFF012070BD002070BDB0
:1003F0000020024010B590F821100022022905D0FB
:100400000421816380F82020012010BD01680B6861
:1004100023F00E030B6001680B6823F001030B60EF
:1004200090F84030C46B012101FA03F3636080F857
:10043000211080F82020104610BD000010B50024C7
:1004400090F82110022903D00421816301243DE0AA
:1004500001680A6822F00E020A6001680A6822F048
:1004600001020A601A4A0168914201D1012121E08A
:10047000174A1432914201D110211BE0144A28324C
:10048000914201D1891515E0114A3C32914201D1C6
:1004900089140FE00E4A5032914202D14FF480315C
:1004A00008E00B4A6432914202D14FF4801101E01E
:1004B0004FF08071064A083A5160012180F82110FE
:1004C000002180F82010416B01B18847204610BD03
:1004D0000800024010B506484FF0FF3101610022CC
:1004E0000261C160C26000F015FA002010BD00007A
:1004F000001002402DE9F04705460F464FF0010A73
:10050000DFF8908098F8180001280DD0012088F8B5
:1005100018002868204E4CF25039022807D048466F
:10052000FFF73EFF98B12FE00220BDE8F087484674
:10053000FFF736FFF8B90120FFF7D2FE4846FFF774
:100540002FFF8246306920F0040030611CE04FF03C
:10055000FF303860AC6811E02046FFF7D3FE484614
:10056000FFF71EFF8246306920F0020030615FEA2B
:100570000A0001D03C6007E004F58064D5E902017F
:1005800000EB8120A042E7D8002088F818005046F0
:10059000CBE7000070000020002002400348016902
:1005A00041F08001016100207047000000200240FE
:1005B0002DE9F05F0746884615461E460024DFF801
:1005C000749099F81800012809D0012089F81800C2
:1005D0004CF2503B5846FFF7E3FE18B126E00220EC
:1005E000BDE8F09F012F05D0022F05D00427DFF8CA
:1005F00048A019E00127FAE70227F8E72201284678
:100600003146FFF791FD81B208EB4400FFF78CFE05
:100610005846FFF7C5FEDAF8101021F00101CAF8BC
:10062000101018B9641CE4B2BC42E7D3002189F869
:100630001810D5E770000020002002400020064975
:100640000A69120607D5054A4A60054A4A600969DF
:10065000090600D5012070470020024023016745AC
:10066000AB89EFCDB0F5005F02D1024901200870DF
:10067000704700002000002010B504490A680242BB
:1006800002D00860FFF7EEFF10BD00001404014027
:100690002DE9F84F00240023DFF8C4914FF00F0834
:1006A000A9F1040B09F1040AABF1040ED1E0012712
:1006B000A7403A40BA4275D1DFF8A8C14D68A5EB12
:1006C0000C0665452BD00DDC032D34D005DC35B38D
:1006D000012D19D0022D2FD11BE0112D16D0122D76
:1006E0002AD119E0B6F5881F19D006DCB6F5803F8F
:1006F00015D0B6F5801F1FD111E0B6F5001F0ED042
:10070000B6F5041F18D10AE0CB6815E0CB681B1DB5
:1007100012E0CB6808330FE0CB680C330CE08B6839
:1007200023B1012B04D00823476105E0042303E033
:100730000823076100E00023FF2A01D8054601E0F5
:1007400000F1040502D84FEA840603E0A4F108068C
:100750004FEA86062F6808FA06FC27EA0C0703FA18
:1007600006F647EA06072F604D68ED0070D53E4D4E
:10077000AE6946F00106AE61AD6905F00105009570
:100780003A4D24F003067719BE68A5072D0F08FA25
:1007900005FC26EA0C06DFF8D8C0604503D14FF00F
:1007A000000C17E054E0DFF8CCC0604502D14FF0F8
:1007B000010C0FE0DFF8C0C0604502D14FF0020C21
:1007C00008E0DFF8B8C0604502D14FF0030C01E04B
:1007D0004FF0040C0CFA05FC4CEA060CC7F808C0F4
:1007E0004D68ED0205D5D9F800501543C9F8005001
:1007F00004E0D9F800509543C9F800504D68AD02A7
:1008000005D5DAF800501543CAF8005004E0DAF8CC
:1008100000509543CAF800504D68AD0305D5DBF88C
:1008200000501543CBF8005004E0DBF8005095432E
:10083000CBF800504D68ED0305D5DEF800501543A8
:10084000CEF8005004E0DEF800509543CEF800509A
:10085000641C0A6832FA04F57FF429AFBDE8F88F0A
:100860000804014000001110001002400000014087
:1008700000080140000C014000100140001401403C
:10088000002A01D00161704709040161704700002E
:10089000014880687047000000000020024881681D
:1008A00002781144816070470000002010B50748AD
:1008B000016841F010010160032000F079F80F2079
:1008C00000F006F800F028F8002010BD00200240DB
:1008D00070B504460D4D4FF47A712878B1FBF0F0F5
:1008E0000B490968B1FBF0F000F02CFB08B10120C6
:1008F00070BD102C07D200222146501E00F038F89F
:100900006C60002070BD012070BD00000000002060
:100910000C0000207047000008B50C48816941F0C8
:1009200001018161816901F001010091C16941F01A
:100930008051C161C06900F080500090044948684E
:1009400020F0E06040F00070486008BD00100240F8
:1009500000000140002809DB00F01F020121914046
:100960004009800000F1E020C0F80011704700004D
:10097000F0B40D460D4B1B68C3F30223C3F107040B
:10098000042C00D90424191D072901D2002300E0FA
:10099000DB1E012606FA04F1491E294099409E40BB
:1009A000761E16403143F0BC01F098B90CED00E022
:1009B00000F00701054A10684FF6FF03184040EAAF
:1009C0000120034908431060704700000CED00E06F
:1009D0000000FA052DE9F04704460D46002C17D01B
:1009E000DFF83081D8F8000000F00700A84211D2EB
:1009F000D8F8000020F007002843C8F80000D8F815
:100A0000000000F00700A84204D00120BDE8F087F4
:100A10000120FBE72068404E810712D5400703D52F
:100A2000706840F4E06070602078000703D570685B
:100A300040F4605070607068A16820F0F0000843D6
:100A400070602078C0072CD06068012806D002288A
:100A500009D0316889070BD40120D7E731688903B1
:100A600006D40120D2E73168890101D40120CDE705
:100A7000716821F0030101437160FFF709FF074628
:100A800041F2883906E0FFF703FFC01B484501D952
:100A90000320BBE77068616800F00C00B0EB810FC9
:100AA000F1D1D8F8000000F00700A8420ED9D8F81C
:100AB000000020F007002843C8F80000D8F8000024
:100AC00000F00700A84201D001209FE720784007EE
:100AD00005D57068E16820F4E06008437060207814
:100AE000000706D57068216920F4605040EAC10013
:100AF000706000F03FF87168084AC1F30311515C5F
:100B0000C8400749086007480068FFF7E1FE002079
:100B10007CE700000020024000100240B8210008DD
:100B20000C0000200400002001480068704700000D
:100B30000C00002000B5FFF7F7FF04494968044A9C
:100B4000C1F30221515CC84000BD0000001002400A
:100B5000C821000800B5FFF7E7FF04494968044AC7
:100B6000C1F3C221515CC84000BD0000001002402A
:100B7000C82100080E4B59680E4801F00C02042AE7
:100B800011D0082A0FD10C48C1F38342805CC903FD
:100B90000AD55968084AC1F34041921E515C054A82
:100BA0005043B0FBF1F070470449484370470000E0
:100BB0000010024000127A00A821000800093D0040
:100BC0002DE9F84F0446002C0ED02078D94DC007EF
:100BD0005ED06868C0F3810001280BD06868C0F35C
:100BE0008100022803D00CE00120BDE8F88F68687E
:100BF000C00306D5286880034AD56068A8BB0120D9
:100C0000F3E76068B0F5803F11D0A8B1B0F5A02F30
:100C10001BD0286820F480302860286820F48020C9
:100C20002860606830B3FFF733FE06461EE0286890
:100C300040F480302860F4E7286820F48030286091
:100C4000286820F480202860EBE7286840F48020A2
:100C50002860286840F480302860E2E7FFF718FE3B
:100C6000801B642802D90320BFE711E028688003B5
:100C7000F4D50DE0FFF70CFE064606E0FFF708FE90
:100C8000801B642801D90320AFE728688003F5D4CE
:100C90002078DFF8A48280074FF0010A4FF00009A6
:100CA00045D5686810F00C0F07D06868C0F3810064
:100CB000022812D16868C0030FD42868800704D5C1
:100CC0002069012801D001208FE72868616920F0A0
:100CD000F80040EAC100286029E02069B8B1C8F8EE
:100CE00000A0FFF7D5FD064606E0FFF7D1FD801B0B
:100CF000022801D9032078E728688007F5D52868FD
:100D0000616920F0F80040EAC10028600FE0C8F8EF
:100D10000090FFF7BDFD064606E0FFF7B9FD801B1A
:100D2000022801D9032060E728688007F5D42078DD
:100D3000000726D58148A16999B1C0F800A0FFF746
:100D4000A7FD064606E0FFF7A3FD801B022801D998
:100D500003204AE7686A8007F5D5012000F012FDFC
:100D60000FE0C0F80090FFF793FD064606E0FFF79E
:100D70008FFD801B022801D9032036E7686A8007AF
:100D8000F5D42078400773D50026E869C00008D460
:100D9000E86940F08050E861E86900F08050009018
:100DA0000126DFF89CB1DBF80000C00514D4DBF8A5
:100DB000000040F48070CBF80000FFF769FD0746A3
:100DC00006E0FFF765FDC01B642801D903200CE78E
:100DD000DBF80000C005F4D5E068012812D0B0B1FE
:100DE00005281DD0286A20F001002862286A20F01A
:100DF00004002862E06841F2883B28B3FFF748FD11
:100E000007461DE0286A40F001002862F2E7286AE0
:100E100020F001002862286A20F004002862E9E737
:100E2000286A40F004002862286A40F00100286225
:100E3000E0E7FFF72DFDC01B584501D90320D4E69C
:100E4000286A8007F5D50DE0FFF722FD074606E08A
:100E5000FFF71EFDC01B584501D90320C5E6286ACF
:100E60008007F5D4012E03D1E86920F08050E861B5
:100E7000E069A0B36968C1F38101022946D0022864
:100E800005D0C8F86090FFF703FD04463AE0C8F8C3
:100E90006090FFF7FDFC064606E0FFF7F9FC801BBB
:100EA000022801D90320A0E628688001F5D4206A31
:100EB000B0F5803F05D16868A16820F40030084390
:100EC0006860D4E908010843696821F47411084393
:100ED0006860C8F860A0FFF7DBFC044607E026E086
:100EE000FFF7D6FC001B022801D903207DE6286805
:100EF0008001F5D51BE0FFF7CBFC001B022801D9D0
:100F0000032072E628688001F5D410E001280CD097
:100F10006868226A00F48031914204D1616A00F469
:100F20007010884203D001205FE601205DE60020BA
:100F30005BE6000000100240000042428004424292
:100F40000070004010B5401EB0F1807F01D3012039
:100F500010BD4FF0E02460610F21601700F0BEFE6D
:100F60000020A06107202061002010BD2DE9F84F6E
:100F70000446DDF828800E4615461F4694F84200C8
:100F8000202802D00220BDE8F88FF6B1EDB14FF075
:100F9000000AC4F844A0222084F842000120206303
:100FA000C4F834A0FFF774FC8146A585E585A068E8
:100FB0004FF4805B584501D1206940B13546002689
:100FC000A7F800A04FF0200A3AE00120DBE7002557
:100FD000F6E720680168C9060AD5016841680091F2
:100FE000398829B10220606384F842A00020CAE752
:100FF0000168890618D525B1A16859452BD031B1B2
:1010000007E04068C0F3080026F8020B06E02169FB
:1010100009B3406800F07F0028706D1C3888401CC0
:101020003880E08D401EE085B8F1FF3F08D0FFF723
:101030002FFCA0EB0900404510D8B8F1000F0DD0EF
:10104000E08D0028C5D1A08DE18D401A388084F84C
:1010500042A0002097E740682870DEE784F842A0AD
:10106000032090E718B5034693F84200202801D0EA
:10107000022018BD51B14AB1012018630020586305
:10108000184600F08DFD014611B105E0012018BDA4
:10109000186B012802D00121084618BD18680268A3
:1010A0004068009018680C3050E8002F42F01002A1
:1010B00040E80024002CF5D1EEE7000038B50C46DE
:1010C0000068134A904222D1FFF7E2FB114AD06038
:1010D0005480908820449080FFF7B0FA00F08EFA98
:1010E000FFF75CFA4FF4007421460B48FFF733F822
:1010F0000A480068016843680093016840680090EE
:101100002246BDE8384004490448FFF7ABBF38BD6C
:101110000044004010000020900000202800002023
:1011200070470000F8B5044622681068D16853691A
:1011300000F00F06002E08D1850606D58D0604D5D1
:101140002046BDE8F84000F06BBC0025002E66D0BC
:1011500003F0010601F49077374360D0C20705D051
:10116000CA0503D5626C42F001026264420705D5EC
:10117000DA0703D0626C42F002026264820705D58E
:10118000DA0703D0626C42F004026264020707D5FA
:1011900001F02002324303D0626C42F00802626424
:1011A000626C002A31D0800604D5880602D520461C
:1011B00000F036FC20684069C0F38010616C0907BC
:1011C00000D438B3204600F0F7FB206840694006A1
:1011D0001CD52068143050E8001F21F0400140E881
:1011E0000012002AF5D1E06B60B159494163E06B10
:1011F000FFF724F9002808D0E06B416B01B0BDE88F
:10120000F04008472046FFF78BFFF8BD2046FFF768
:1012100087FFF8BD2046FFF783FF6564F8BD236BA9
:10122000012B7DD1C3067BD5CB067ED510685068D7
:10123000009050694FF0200340064FF0020643D55E
:10124000E16B0868406880B20028E7D0A28D824236
:10125000E4D9E085886920282DD020680C3050E83A
:10126000001F21F4807140E80012002AF5D12068A7
:10127000143050E8001F21F0010140E80012002A5C
:10128000F5D12068143050E8001F21F0400140E8FB
:101290000012002AF5D184F84230256320680C3012
:1012A00050E8001F21F0100140E80012002AF5D19B
:1012B000E06BFFF79FF86663A08DE18D401A81B265
:1012C0002046FFF7FBFEF8BDA08DE18D401A81B2EC
:1012D000E08D0028F7D00029F5D020680C3050E8C8
:1012E000002F22F4907240E80027002FF5D12068EB
:1012F000143050E8002F22F0010240E80027002FB0
:10130000F5D184F84230256320680C3050E8002F76
:1013100022F0100240E80023002BF5D1666300E0C4
:1013200003E02046FFF7CAFEF8BD020606D50A060E
:1013300004D52046BDE8F84000F04EBC4006F3D589
:101340004806F1D52046BDE8F84000F05CBB00003F
:10135000A919000870B50446002C04D094F8410087
:10136000002510B106E0012070BD84F840502046F1
:1013700000F024F8242084F841002068C16821F49A
:101380000051C160204600F0AFFB2068016921F4E4
:10139000904101612068416921F02A014161206882
:1013A000C16841F40051C1606564202084F84100A7
:1013B00084F842006563002070BD000030B585B040
:1013C000002401940294039404940068184988420C
:1013D0002BD11848C16941F40031C161C16901F4E0
:1013E00000310091816941F004018161806900F060
:1013F0000400009004200190022002900320049039
:101400000D4D01A92846FFF743F9082101910294E7
:10141000039401A92846FFF73BF900220521262065
:10142000FFF7A6FA2620FFF795FA05B030BD0000B9
:1014300000440040001002400008014070472DE9C0
:10144000F84304460E4615461F4694F841002028EE
:1014500002D00220BDE8F8837EB175B1002060643F
:10146000212084F84100FFF713FA8146A584E58422
:10147000A068B0F5805F02D003E00120EAE72069B0
:1014800020B1354600264FF0200815E00025FAE788
:101490004B46002280212046009700F0CCFB18B17B
:1014A00084F841800320D5E7ADB1216815F8010B20
:1014B0004860E08C401EE084E08C0028E8D14B4678
:1014C000002240212046009700F0B5FB50B184F87F
:1014D00041800320BEE736F8020B2168C0F3080004
:1014E0004860E6E784F841800020B3E77047FEE7F4
:1014F00030B585B004460D46FFF7A0F800220192F2
:1015000001230293039404950092694601A8FEF713
:10151000F1FFFFF743F805B030BD000070B5164E7F
:10152000346875684FF40050B0EB144F05D0214675
:1015300012A000F0C3FB012070BD0F4840422844B8
:10154000B0F5004F05D9294613A000F0B7FB0120E4
:1015500070BD19A000F0B2FB72B6FEF7BBFF4FF0F2
:10156000E021002008614861886184F308881848F8
:101570000660A847012070BD0040000873746163D5
:101580006B2061646472206572726F723A203078E9
:10159000253038580D0A0000726573657420686143
:1015A0006E646C6572206572726F723A20307825B5
:1015B0003038580D0A0000006170702076616C6947
:1015C000642C206A756D70696E672E2E2E0D0A00D0
:1015D00008ED00E082B007480068016841680191A9
:1015E0000168406801904FF400720349014802B05D
:1015F000FFF738BD28000020900000202DE9F041C1
:1016000000241A4D1A4F1B4E2878A046002820D0DF
:10161000A868C11930786A7842EA002200230120C4
:10162000FEF7C6FFA868801CA860012485F800802A
:101630000FE0A868C1193219305D527840EA0222E1
:1016400000230120FEF7B4FFA868801CA860A41C3A
:10165000A4B26988601C8842EBD36888844203D2B4
:10166000305D687001202870BDE8F0811000002016
:1016700000400008900000202DE9F04186B00024D1
:1016800002940394049405942A48816941F010015E
:101690008161816901F010010191816941F02001AE
:1016A0008161816901F020010191816941F00401AA
:1016B0008161816901F004010191816941F00801B2
:1016C0008161806900F008000190DFF86C800022E1
:1016D000C0214046FFF7D4F8184F002201213846B8
:1016E000FFF7CEF8C020029001250395049402264E
:1016F000059602A94046FEF7CBFF02950395049498
:10170000059602A93846FEF7C3FF4FF440500290F9
:101710000B480390049502A93846FEF7B9FF002252
:1017200011462820FFF724F92820FFF713F906B007
:10173000BDE8F0810010024000080140000C0140AB
:101740000000211010B50C480A4901604FF4E13146
:10175000416000218160C16001610C2242618161B0
:10176000C161FFF7F7FD002803D0BDE81040FEF788
:10177000B4BD10BD0044004028000020FEE7FEE795
:101780007047000008B507494FF4FA520968B1FBE9
:10179000F2F14143009100BF0098411E0091FAD23E
:1017A00008BD00000C0000207047000038B56FF045
:1017B0007F4000900D4B40220D490E48FFF7D6FBAD
:1017C0000A4CA41E608800280FD00BA10848FEF721
:1017D000CDFC20B10AA000F071FA01206070402118
:1017E0000348FEF7B8FC0020608038BD22000020CE
:1017F00090020020280000207374617274000000C1
:1018000073746172742072656365697665640D0A2C
:101810000000000010B507A000F050FAFFF77EFEB0
:10182000002805D008A000F049FA0E4900204870B1
:1018300010BD00006A756D70696E6720746F20615D
:1018400070702E2E2E0D0A006A756D70206661690B
:101850006C65642C2074727920616761696E0D0A71
:1018600000000000200000202DE9F0410F4C104D39
:1018700004272078002808D00020207029880DA097
:1018800000F01CFA6770BDE8F081104E3068002847
:10189000F9D0FEF7FDFF3168401AB0F5FA6FF2D9C2
:1018A00029880BA000F00AFA6770ECE720000020FE
:1018B000140000206B657931207072657373656464
:1018C0002C206C656E3D25640D0A00001C00002074
:1018D00072782074696D656F75742C206C656E3D2F
:1018E00025640D0A0000000010B50A210848FFF722
:1018F000FFFD08A000F0E2F90F49002008800F4921
:1019000008600F4C2070FFF765FE0220607010BD6C
:1019100000400008666C61736820657261736564DD
:101920002C20726561647920746F2072656365692B
:1019300076650D0A00000000140000201C00002045
:1019400020000020FEF7AABF30B58FB0282105A8DF
:10195000FEF701FC14216846FEF7FDFB012105910D
:101960000804069000240794099102250C950D9017
:101970004FF4E0100E9005A8FFF722F908B1FEF72A
:10198000ACFC0F200090019502944FF4806003900E
:10199000049402216846FFF71DF8002801D0FEF7E5
:1019A0009CFC0FB030BD704710B5406A0021C18566
:1019B000C184FFF7B5FB10BD01680C3151E8002F61
:1019C00022F4907241E80023002BF5D10168143114
:1019D00051E8002F22F0010241E80023002BF5D14D
:1019E000016B012909D101680C3151E8002F22F067
:1019F000100241E80023002BF5D1202180F842108D
:101A000000210163704710B50168CA6822F04002E6
:101A1000CA60202180F84110FFF768FD002010BD4A
:101A200008B590F84210222901D0022008BD826832
:101A30004FF480539A4201D1016921B1816A9A42DF
:101A40001DD052B10BE0816A02685268C2F30802ED
:101A50000A80816A891C816209E002697AB10268A0
:101A6000526802F07F020A70816A491C8162C18D4E
:101A7000491E0904090CC18505D0002008BD026873
:101A800052680A70F0E70168CA6822F02002CA6052
:101A90000168CA6822F48072CA6001684A6922F04B
:101AA00001024A61202180F8421000214163026B4B
:101AB000012A03D0FFF7C2FC002008BD01630168C2
:101AC0000C3151E8002F22F0100241E80023002BD6
:101AD000F5D101680A68D20602D50A684968009102
:101AE000818DFFF7EBFAE7E770B5044620680169DE
:101AF000E26821F4405111430161A168206901436A
:101B0000606901432068C26841F20C639A430A434A
:101B1000C26020684169A26921F4407111434161AA
:101B20001E492068884202D1FFF714F801E0FFF750
:101B300001F800EBC00101EB00106168642289002C
:101B4000B0FBF1F3B3FBF2F36FF018067343B0FB95
:101B5000F1F5B0FBF1F605EB8305322303EB051538
:101B6000B5FBF2F5B6FBF2F605F0F00505EB061550
:101B7000B0FBF1F6B0FBF1F0B0FBF2F06FF0180142
:101B8000484306EB800003EB0010B0FBF2F0216845
:101B900000F00F002844886070BD0000003801404C
:101BA00081628285C28500214164222180F8421031
:101BB0000169002904D00168CA6842F48072CA60D1
:101BC00001684A6942F001024A610068C16841F057
:101BD0002001C1600020704790F84110212901D0F8
:101BE000022070478168B1F5805F01D1016961B160
:101BF000016A4A1C0262026809785160C18C491E60
:101C00000904090CC1840AD013E0016A026809883A
:101C1000C1F308015160016A891C0162EEE70168A5
:101C2000CA6822F08002CA600068C16841F04001C1
:101C3000C160002070472DE9F84304460D46174661
:101C40009846089E25E0701C23D0FEF721FEA0EBED
:101C50000800B0421BD8D6B12068C168490718D522
:101C6000802D16D0402D14D00168C943090710D427
:101C7000002521680968406800902046FFF79CFE17
:101C80000820606484F840500120BDE8F8830320F8
:101C9000FBE72068006835EA000004D00020B84265
:101CA000D1D00020F1E70120F9E700000148FFF75B
:101CB00039BA000028000020FEE700000FB4054BF1
:101CC00010B503A9044A029800F028F810BC5DF88A
:101CD00014FB000075210008240000200907090EEC
:101CE000002804DB00F1E02080F80014704700F0C9
:101CF0000F0000F1E02080F8141D704702E008C8D2
:101D0000121F08C1002AFAD170477047002001E075
:101D100001C1121F002AFBD1704700002DE9FF4FBF
:101D20008DB00F460546002606E025280BD0DDE9DC
:101D30000F1290476D1C761C28780028F5D111B041
:101D40003046BDE8F08F0024A246A1460122E949B1
:101D500000E0044315F8013F203B02FA03F008427B
:101D6000F7D128782A2810D06FF02F022878A0F118
:101D70003001092914D80AEB8A0102EB410144F031
:101D8000020400EB010A6D1CF0E701CF5FEA000AD4
:101D900003D544F40054CAF1000A44F002046D1C57
:101DA00028782E2817D115F8010F44F004042A28AA
:101DB0000ED06FF02F022878A0F1300109290AD83F
:101DC00009EB890102EB410100EB01096D1CF2E70F
:101DD00057F8049B6D1C28786C280FD006DC4C2823
:101DE00017D068280DD06A2814D104E0742810D0C8
:101DF0007A280FD10DE044F400140AE044F4801472
:101E000001E044F440146978814202D104F5801461
:101E10006D1C6D1C28786E281ED00CDC632830D019
:101E200004DC00288BD0582811D19FE0642867D0AB
:101E300069280CD164E073282DD004DC6F2872D09F
:101E4000702804D194E075286ED078286DD0DDE933
:101E50000F129047761C4BE1C4F30250022806D0C3
:101E6000032809D0042801CF09D0066040E101CF42
:101E7000F117C0E900613BE101CF068038E106704F
:101E800036E117F8040B8DF8000000208DF80100F2
:101E9000EB46012003E057F804BB4FF0FF30610729
:101EA0004FF0000102D40DE008F1010188464945D8
:101EB0000FDA8045F8DB1BF808100029F4D108E0A0
:101EC00008F1010188468142FADB1BF8081000295D
:101ED000F6D1DDE90F23AAEB08008146214600F088
:101EE00031F9304400EB080604E0DDE90F121BF87D
:101EF000010B9047B8F10108F7D221464846F2E0BD
:101F00000A21C4F302524FF0000B0891022A04D0B8
:101F100001CFC117032A09D00AE0FF1D27F00707E8
:101F2000F7E8020108E02CE01EE01FE000B2C11754
:101F3000042A01D140B2C117021E71F1000206DA73
:101F40000023D0EB030063EB01012D2202E0220508
:101F500004D52B228DF82420012203E0E20701D0D2
:101F60002022F7E7904653E00A210BE0102109E018
:101F700010214FF0000B44F004044FF008090891C1
:101F800003E008214FF0000B0891C4F30252022A2B
:101F900004D001CF0021032A06D006E0FF1D27F060
:101FA0000707F7E8020103E080B2042A00D1C0B2BB
:101FB0004FF0000822072BD52A78702A07D0DDF8C9
:101FC00020C08CF0100C5CEA0B0C05D00EE0402217
:101FD0008DF82420012208E050EA010306D03023C6
:101FE0008DF824308DF8252002229046089B83F03E
:101FF000080353EA0B030BD150EA010201D1620737
:1020000006D530228DF824204FF00108A9F10109EE
:102010002A78582A04D038A20B9208AA0A920BE018
:102020003AA2F9E75B46089AFEF7B2F80B9B9B5C75
:102030000A9A521E0A92137050EA0102F2D10A98CB
:10204000ADEB000000F1200B600702D524F48034D2
:1020500001E04FF00109D94502DDA9EB0B0000E0DA
:10206000002000EB0B0141440890AAEB010AE003B9
:1020700006D4DDE90F232146504600F063F80644FC
:102080004FF0000908E009A911F80900DDE90F1275
:10209000904709F10109761CC145F4DBE0030CD53A
:1020A000DDE90F232146504600F04CF8064404E0D9
:1020B000DDE90F1230209047761C0899481E0890E1
:1020C0000029F5DC08E00A980A990078491C0A9171
:1020D000DDE90F129047761CBBF10001ABF1010B5B
:1020E000F1DC21465046DDE90F2300F019F80644E3
:1020F0006D1C21E609280100303132333435363782
:102100003839616263646566000000003031323343
:1021100034353637383941424344454600000000E3
:102120002DE9F041044600251E461746880404D4D4
:1021300005E039462020B0476D1C641EF9D52846BD
:10214000BDE8F0812DE9F041044600251E46904689
:10215000C80301D5302700E02027880404D505E016
:1021600041463846B0476D1C641EF9D52846BDE887
:10217000F081000013B56423012269460248FFF78D
:102180005EF900981CBD000028000020FEF78EFBC1
:10219000FFF7DAFBFFF770FAFFF7D4FAFEF74CF817
:1021A000FEF778F8FCE701020203040506070809B8
:1021B0000A0B0C0D0E0F10100000000000000000B4
:1021C00001020304060708090000000001020304DD
:1021D000F02100080000002028000000FC1C00087E
:1021E0001822000828000020A80600000C1D000886
:1021F00001000000100000000000000000127A0042
:1022000000000000000000000000000000000000CE
:082210000000000000000000C6
:04000005080000ED02
:00000001FF
